:020000040800F2
:10000000300E002091030008314F0008334F0008E4
:10001000374F00083B4F00083F4F0008000000002A
:10002000000000000000000000000000434F000836
:10003000454F000800000000474F0008494F0008E6
:10004000AB030008AB030008AB030008AB030008D8
:10005000AB030008AB030008AB030008AB030008C8
:10006000AB030008AB030008AB030008AB030008B8
:10007000AB030008AB030008AB030008AB030008A8
:10008000AB030008AB030008AB030008AB03000898
:10009000AB030008AB030008AB030008AB03000888
:1000A000AB030008AB030008AB030008AB03000878
:1000B000AB030008AB030008AB030008AB03000868
:1000C000AB030008AB030008AB030008AB03000858
:1000D000AB030008FF48000895320008AB03000896
:1000E000AB030008AB030008AB03000800F002F804
:1000F00000F05AF80AA090E8000C82448344AAF168
:100100000107DA4501D100F04FF8AFF2090EBAE865
:100110000F0013F0010F18BFFB1A43F0010318473B
:1001200070A9000090A900000A444FF0000C10F8DC
:10013000013B13F0070408BF10F8014B1D1108BF65
:1001400010F8015B641E05D010F8016B641E01F805
:10015000016BF9D113F0080F1EBF10F8014BAD1C55
:100160000C1B09D16D1E58BF01F801CBFAD505E073
:1001700014F8016B01F8016B6D1EF9D59142D6D3CD
:10018000704700000023002400250026103A28BFF5
:1001900078C1FBD8520728BF30C148BF0B607047F9
:1001A0001FB51FBD10B510BD07F0A6FC1146FFF727
:1001B000F7FF04F0E9FB07F0C4FC03B4FFF7F2FF1C
:1001C00003BC07F0C5FC000000210020674A12684C
:1001D00042F48032654B1A6000BF644A126802F430
:1001E0000030491C10B9B1F5A06FF6D15F4A126812
:1001F00012F4003F01D0012000E00020012842D18C
:100200005B4A126842F01002594B1A601A46126893
:1002100022F003021A601A46126842F002021A60C3
:10022000524A5268514B5A601A4652685A601A46EE
:10023000526842F480625A601A46526822F47C1274
:100240005A601A46526842F4F8125A601A46126806
:1002500042F080721A6000BF444A126812F0007FB8
:10026000FAD0424A526822F00302404B5A601A46C2
:10027000526842F002025A6000BF3C4A526802F0E3
:100280000C02082AF9D1704710B5FFF79DFF10BD89
:1002900010B53648006840F001003449086008464F
:1002A000406834490840314948600846006832498E
:1002B00008402E4908600846006820F48020086045
:1002C0000846406820F4FE0048604FF41F00886034
:1002D000FFF7DAFF4FF000602849086010BD10B545
:1002E000002100200022214B5B6803F00C0121B1AA
:1002F000042906D0082928D107E0214B214C23608E
:1003000027E01F4B1F4C236023E0184B5B6803F46E
:100310007010164B5B6803F48032022303EB9040AD
:1003200022B9194B4343174C23600DE00F4B5B6818
:1003300013F4003F04D0144B4343124C236003E0FA
:100340000F4B43430F4C236003E00D4B0D4C2360D8
:1003500000BF00BF054B5B68C3F303130B4CE15CAC
:10036000084B1B68CB40074C236010BD00100240B7
:10037000002002400000FFF8FFFFF6FE08ED00E05D
:100380000024F4000000002000127A000400002085
:100390000948804709480047FEE7FEE7FEE7FEE719
:1003A000FEE7FEE7FEE7FEE7FEE7FEE70448054955
:1003B000054A064B7047000091020008ED00000856
:1003C00030080020300E0020300A0020300A0020C3
:1003D0004FF0E021096921F004014FF0E0221161A2
:1003E000C21700EB5272D210224B1A7019460978CC
:1003F00001EB4102C2EBC1114FF6FF7202EAC101EB
:100400001D4A1180704701461B4A12884A434FF02B
:10041000E0235A6100229A6101221A6100BF4FF065
:10042000E022106910F0010F02D010F4803FF6D0E6
:1004300000224FF0E0231A619A61704701460D4A8D
:1004400012784A434FF0E0235A6100229A61012258
:100450001A6100BF4FF0E022106910F0010F02D0C6
:1004600010F4803FF6D000224FF0E0231A619A6129
:1004700070470000140000201600002008B501217C
:10048000082005F0E3F8C020ADF8000010208DF83A
:10049000030003208DF802006946F74804F024FEAB
:1004A00008BD10B5F448006820F07040F2490860BB
:1004B0000846006840F0405008600120EF4908609D
:1004C000EF49C1F898014FF00400FFF7B7FF002093
:1004D000EA4908604FF00400FFF7B0FF0020E84948
:1004E000C1F8980110BD10B5E348006820F07040D5
:1004F000E14908600846006840F04050086000206C
:10050000E0490860DE49C1F89C014FF00400FFF7A4
:1005100095FF0120DB490860D949C1F89C014FF0E3
:100520000400FFF78BFF10BD10B50024D24800680F
:1005300020F07040D04908600846006840F0004054
:1005400008600120CD490860FFF778FF0120CC4901
:10055000C1F89801FFF772FF0AE0601CC4B2322CA8
:1005600003DDFFF7C0FF012010BD0120FFF766FF8C
:10057000C54800680028F0D1C249086000BFF3E711
:1005800010B50020BF490860BB48006820F07040EB
:10059000B94908600846006840F0405008604FF0D4
:1005A0000000B749C1F89C014FF00200FFF746FF79
:1005B0000120B44908604FF00200FFF73FFF002020
:1005C000AF49C1F8980110BD10B50020AD490860D1
:1005D000A948006820F07040A749086008460068F4
:1005E00040F0405008604FF00100A549C1F89C015F
:1005F0004FF00200FFF722FF0120A24908604FF0F0
:100600000200FFF71BFF00209D49C1F8980110BDB3
:1006100070B504469848006820F07040964908601C
:100620000846006840F04050086000209549086086
:1006300005461AE0E009914908604FEA44604FEA34
:1006400010644FF00200FFF7F9FE01208C49C1F859
:1006500098010220FFF7F2FE00208A4908604FF05F
:100660000200FFF7EBFE681CC5B2082DE2DB70BD8F
:1006700070B5054600248048006820F070407E492F
:1006800008600846006840F000400860002616E058
:1006900000207C4908604FF00200FFF7CFFE0120E8
:1006A0007749C1F898016006040E7748006808B1E0
:1006B000601CC4B20220FFF7C1FE701CC6B2082E37
:1006C000E6DB15B1FFF75CFF01E0FFF77DFF204699
:1006D00070BD70B505460E460024FFF7E2FE2846C1
:1006E000FFF796FF641CFFF71FFF3046FFF790FFF0
:1006F000641CFFF719FFFFF7D4FE691CC8B2FFF7AF
:1007000087FF641CFFF710FF0020FFF7B1FF0446CE
:10071000FFF7E9FE204670BD2DE9F0410746884607
:1007200015461E460024FFF7BCFE3846FFF770FF53
:10073000FFF7FAFE4046FFF76BFFFFF7F5FEFFF706
:10074000B0FE791CC8B2FFF763FFFFF7EDFE00BFF4
:100750000DE0681EA04204D00120FFF789FF30554C
:1007600003E00020FFF784FF3055601CC4B2AC42A8
:10077000EFDBFFF7B8FE2046BDE8F0812DE9F04140
:1007800080460D4616461F460024FFF78AFE404667
:10079000FFF73EFFFFF7C8FE2846FFF739FFFFF7D8
:1007A000C3FE00BF06E0385DFFF732FFFFF7BCFE77
:1007B000601CC4B2B442F6DBFFF795FE0120BDE831
:1007C000F08170B505460E46144631462846FFF7BF
:1007D00080FF2070012070BD37B504460D4602AB86
:1007E000012229462046FFF7C9FF3EBD2DE9F84307
:1007F0000746884614461D46089E6A4641463846C6
:10080000FFF7DFFF28B3601CFF2101FA00F0C4F1FD
:1008100008012944491EFF220A41104300F0FF0944
:10082000C5F1080006FA00F0C6B2C4F1070006419F
:100830009DF8000000EA090000909DF80000304398
:1008400000909DF8002041463846FFF7C5FFBDE8FF
:10085000F8830020FBE7F8B506460F4614461D4610
:100860006A4639463046FFF7ACFF7DB10120A04013
:100870009DF8001008430FE0000C01409C812142CC
:1008800000802142988121421C8121420120A04008
:100890009DF8001021EA0000C0B200909DF80020F1
:1008A00039463046FFF798FFF8BD000010B520210B
:1008B0008B4804F0AAFC012800D110BD0020FCE701
:1008C000F0B503460024012019E0864D35F810608C
:1008D000451E844F27F8156007F1160535F810708E
:1008E000451E804E163626F8157006F1160535F8A9
:1008F0001070451E163626F81570451CE8B20A28F9
:10090000E3DB784D6B822985EA87774D2D885D1B67
:100910002DB2744EB582754D2D884D1B2EB2714D82
:100920006E85734D2D88551B2EB26E4DA5F8406017
:10093000F0BD2DE9FC4104460D46164600208DF819
:1009400005008DF804008DF803008DF802008DF885
:1009500001008DF800006B46062203213C20FFF7C2
:10096000DBFE9DF803309DF8027043EA07231AB2BC
:100970009DF805309DF8047043EA072319B29DF8ED
:1009800001309DF8007043EA072318B2FFF798FF83
:100990005448808A20805348408D28805148B0F8C0
:1009A00040003080BDE8FC811CB500240BE001AAAA
:1009B000911E6846FFF7BDFFC820FFF73FFD01F01D
:1009C000A8FB601CC4B2322CF1DB1CBD70B5044620
:1009D0000D462A4621463C20FFF7FEFE70BD414BE6
:1009E0009B8A03803F4B5B8D0B803E4BB3F84030BE
:1009F000138070473EB504466A4601A902A8FFF776
:100A000098FFBDF9080009F091FC3A4908602060A0
:100A1000BDF9040009F08AFC374908606060BDF93F
:100A2000000009F083FC35490860A0603EBD10B5A8
:100A30000446072C00DD10BD6007010E0120FFF702
:100A4000C5FF00BFF7E710B50446022C00DD10BD5E
:100A500021460220FFF7BAFF6420FFF7EFFC00BF3A
:100A6000F5E710B5044614B10020FFF7ECFF702144
:100A70000020FFF7ABFFA0210120FFF7A7FF002117
:100A80000220FFF7A3FF10BD10B50446062C00DDC1
:100A900010BDA006010E0020FFF798FF00BFF7E78A
:100AA00010B504460A213C20FFF713FE20700B21ED
:100AB0003C20FFF70EFE60700C213C20FFF709FE82
:100AC000A07010BD10B50020FFF7CBFF0020FFF78E
:100AD000BAFF0620FFF7D8FFFFF766FF10BD000042
:100AE00000080140FC010020180000201A0000202E
:100AF0001C000020200000202400002028000020EE
:100B00000EB50121032004F0AEFD684605F006FA9B
:100B10004FF6FF70ADF804000020ADF80000ADF80E
:100B20000600ADF8020069464FF0804004F0CAFEAE
:100B3000002211464FF0804005F0C7FA01218807D6
:100B400005F068FC2021480605F052FA07214FF015
:100B5000804005F095FC8021C80505F09AFC012134
:100B6000880705F00BFB4FF6FF70ADF80400482036
:100B7000ADF800000020ADF80600ADF802006946AF
:100B8000FE4804F09FFE0121FC4805F0F7FA04211D
:100B9000FA4805F075FC0121F84805F047FC2021D2
:100BA000F64805F064FC8021F44805F072FC012150
:100BB000F24805F0E3F90121880705F0DFF90EBDE1
:100BC00000204FF08041888C0004EC4924310988D2
:100BD0000844704710B501F056FCFFF773FF03F0AF
:100BE00098FB3220FFF70FFC01F04DFCFFF76AFF86
:100BF00003F08FFBFFF784FF4FF07E50E049086061
:100C00000020E0490860E0490860E0490860E049E8
:100C10000860E0490860E0490860FFF7D1FFDF495C
:100C20000860FFF7CDFFDE49086010BD2DE9F041F7
:100C300086B00646DB480078C0F3810009F076FBF9
:100C400007460021384609F001FB01D1D64D10E0DE
:100C50004FF07E51384609F0F9FA01D1D34D08E042
:100C60004FF08041384609F0F1FA01D1D04D00E053
:100C7000D04D01220DF1160005A9031FCDE9010297
:100C8000009104AA891F03A801F03CFB002415E091
:100C9000032C07DA03A931F9140009F047FB46F8E1
:100CA00024000AE003A931F9140009F03FFB804653
:100CB000294609F009FA46F82400641C062CE7DBF3
:100CC00006F11800FFF796FE06B0BDE8F0812DE9A9
:100CD000FE4305460C46A969A06809F087FB074654
:100CE000E968606809F082FB80462968206809F09D
:100CF0007DFB8146414609F079F90646394609F0FF
:100D000075F90090E969A06809F070FB0746296948
:100D1000606809F06BFB80466968206809F066FB33
:100D20008146414609F062F90646394609F05EF906
:100D30000190296AA06809F059FB07466969606853
:100D400009F054FB8046A968206809F04FFB8146F2
:100D5000414609F04BF90646394609F047F9029039
:100D600000982060019860600298A060BDE8FE8352
:100D70002DE9F04F8FB0904908689049096809F053
:100D8000A3F98F4908608C4948688C49096809F0C3
:100D90009BF98C490860884988688849096809F086
:100DA00093F9894908608748006809F0F3F8064616
:100DB000864A874B08F0DCFE03D84FF07E5081490D
:100DC00008608048006809F0E5F806467F4A814BD4
:100DD00008F094FD02D880487A4908607948006894
:100DE00009F0D8F8814607F0E5F9064608F0B8FAA8
:100DF00004467548006809F0CDF8CDE90601704851
:100E0000006809F0C7F88146DDE9062307F022FCF7
:100E100081F00041064608F0A3FA0546664880695D
:100E20006E4908606448C06948606348006A886029
:100E3000284609F0AFF8814607F0CCFC064608F0DA
:100E40008FFA6749086000204860284609F0A2F838
:100E5000814608F005FA81F00041064608F080FA64
:100E60005F4988600020C8604FF07E515C48016196
:100E700000214161284609F08DF8814608F0F0F91B
:100E8000064608F06DFA5649886100215448C16150
:100E9000284609F07FF8814607F09CFC064608F0DA
:100EA0005FFA4F4908624D494D48FFF710FF4FF078
:100EB0007E504B490860002048608860C86020462A
:100EC00009F068F8814607F085FC064608F048FA04
:100ED00043490861204609F05DF8814608F0C0F9F1
:100EE000064608F03DFA3E494861002088612046E8
:100EF00009F050F8814608F0B3F981F00041064648
:100F000008F02EFA3649C861204609F043F88146B8
:100F100007F060FC064608F023FA314908622F49C1
:100F20002F48FFF7D4FE2D49486809F033F8CDE982
:100F300002012A49086809F02DF8CDE90001DDE930
:100F4000022307F087FB81F000410022254BCDE909
:100F5000040108F00FFD81464FF0C042224B08F01B
:100F6000EDFA0022214BCDE9060108F029FF0646E3
:100F700008F0F6F908901E4908983BE0000400408C
:100F8000EC010020F0010020F4010020F801002015
:100F9000380000203C000020400000204C000020D1
:100FA00050000020B5010020333303433333834224
:100FB000333303423333834188020020D4010020BD
:100FC00054000020580000205C0000201EA7E848C4
:100FD0002EFFEF3F2EFFEFBF000080BF5802002022
:100FE0006402002000806640FB21094000805640DA
:100FF000000034C309F0C6F904D2FE49089808F08D
:10100000F5FF0890FC48006808F0C4FF064607F0AA
:10101000D1F80022F94BCDE9040108F0ABFC4FF008
:10102000C042F74BCDE9060108F088FA814608F086
:1010300097F90990F348006808F0ACFFCDE9040186
:10104000F148006808F0A6FFCDE90201DDE90423BC
:1010500007F000FB81F000410022E84BCDE90601DA
:1010600008F088FC06464FF0C042E54B08F066FAEF
:10107000814608F075F90A90E449089808F0B6FF2F
:1010800080F00040E249049009F0B0F9834608F08E
:1010900081FF81460022D94B08F050FA064608F03D
:1010A0005FF90790DA49099809F0A0F9834608F03A
:1010B00071FF06460022D14B08F040FA814608F045
:1010C0004FF90690D2490A9809F090F9834608F042
:1010D00061FF06460022C94B08F030FA814608F04D
:1010E0003FF9059001460BA8DDE9062305F015FD43
:1010F0000E9880F00040C7490860C7490C98086006
:101100000D9880F00040C54908600B9880F00040C1
:10111000C349086008460168006809F067F907904C
:10112000BE480168006809F061F98246BA48016862
:10113000006809F05BF98346B6480168006809F069
:1011400055F95946069008F051FF8146514608F07E
:101150004DFF0746079908F049FF064605F0F0FBEA
:1011600080464146AB48006809F040F9A94908604B
:101170004146A948006809F039F9A7490860414685
:10118000A648006809F032F9A44908604146A4481D
:10119000006809F02BF9A24908600FB0BDE8F08F94
:1011A0002DE9F04F87B004460D4616461F46DDE98F
:1011B00010899C480078012807DAFFF7D9FD994883
:1011C0000078401C9749087090E0FFF7F9FC9649B9
:1011D00008600846006895490968884210D293491A
:1011E00009684FF6FF72511A8F4A1268881809F081
:1011F000B5F882468E4908F067FF8E4908600CE01A
:1012000089490968894A1268881A09F0A7F882464C
:10121000874908F059FF8749086083480068834977
:101220000860DDE9122114982B468DE8C003CDE952
:101230000421069022467F4801687F48006805F037
:1012400045FD764801687348006809F0CFF8834689
:10125000734801687048006809F0C8F8594606905C
:1012600009F0CCF982464FF0804109F0BFF8664999
:1012700008606B4801686948006809F0B7F8069093
:10128000654801686348006809F0B0F8834606992C
:1012900008F0ACFE82464FF0804109F0A7F85649AD
:1012A00008605F480168006809F0A0F806905B4894
:1012B0000168006809F09AF80590574801680068CD
:1012C00009F094F8049053480168006809F08EF81A
:1012D0000390049909F092F98346059909F08EF973
:1012E0008246069908F082FE4649086007B0BDE8CC
:1012F000F08F2DE9F04186B004465048FFF796FC88
:101300004E494869424909F071F880463F4908F062
:10131000DBFE0546494908693D4909F067F8804602
:101320003A4908F0D1FE06464449C868384909F0F0
:101330005DF88046354908F0C7FE07463F48006A19
:101340003E49C9693D4A92693C4B9B68CDE90132EF
:10135000CDE9031039484068009038482A463146A4
:1013600003683846FFF71CFF2A48006820602A48B7
:101370000068606029480068A06029480068E06053
:1013800006B0BDE8F0812049096801601A49096882
:1013900041601C490968816070472DE9F04F95B0A4
:1013A00004460E4615462046FFF7A3FF234908686A
:1013B0002349096808F088FE074613480168384643
:1013C00009F01CF90F901D4948681D49096808F08B
:1013D0007BFE074608480168384609F00FF910906F
:1013E000164988681649096808F06EFE07460548E0
:1013F000016827E00000B4435800002000806640E8
:10140000FB2109405C000020540000200000344310
:10141000DB0F4940EC010020F0010020F401002026
:10142000F80100202C000020500000204C0000207B
:101430000024744970000020300000208802002041
:10144000D4010020384609F0D9F8119011990846C6
:1014500008F0CCFF07901099084608F0C7FF0690E7
:101460000F99084608F0C2FF0590069908F0BEFDE6
:101470008346079908F0BAFD804605F061FA0746F1
:1014800039464FF07E5008F01FFEFE490860FE49C5
:10149000FC48006808F0AAFF074608F027FF3080E4
:1014A000002D7DD060680890A0680990E0680A90DF
:1014B00020680B9012AA0FA908A805F08AFBF34830
:1014C000007878B1F2480078052802DB0020EF4967
:1014D00008700021149809F055F80FD80020EB4946
:1014E00008700BE0149808F055FD0746E94AEA4BEE
:1014F00008F004FA02D20120E4490870129801F0C1
:10150000BAFF834608F046FD0746E44AE44B08F07C
:10151000F5F94ED2139801F0AEFF834608F03AFD7C
:101520000746E04AE04B08F0E9F942D2149801F08E
:10153000A2FF834608F02EFD0746D84AD84B08F094
:10154000DDF936D20020129013901490D048007824
:10155000401CCF490870D549086808F01BFD0746B4
:10156000CC4AD34B08F006FACDE9060107F0F8FEA5
:10157000CE490860486808F00DFDC64ACC4BCDE95D
:10158000060108F0F7F9074607F0EAFEC749486088
:10159000886808F0FFFCBF4AC54BCDE9060100E0B2
:1015A000BBE008F0E7F9074607F0DAFEBF498860BC
:1015B00002E00020B649087012980C9013980D9024
:1015C00014980E90BB4A1168129808F00FFD074658
:1015D0004FF0804108F078FD1290B64A5168139898
:1015E00008F004FD07464FF0804108F06DFD1390B0
:1015F000B04A9168149808F0F9FC07464FF0804112
:1016000008F062FD1490AC48006808F0C3FCCDE916
:101610000201A948006808F0BDFC0746A74AA84B8C
:1016200008F0A8F9CDE90001DDE9022308F0A2F9EC
:1016300000224FF08043CDE9040107F07FFFCDE9A0
:10164000060107F08DFE81464946129808F0CEFE4D
:101650000746964908689849096808F0C7FE804619
:10166000394608F0C3FC28604946139808F0BEFECE
:1016700007468E4948689049096808F0B7FE8046D9
:10168000394608F0B3FC68604946149808F0AEFE8D
:101690000746864988688849096808F0A7FE804699
:1016A000394608F0A3FCA8608348006808F072FC83
:1016B000824A834BCDE9060108F05CF9074607F042
:1016C0004FFE82465146129808F090FE0746774832
:1016D0000168384608F08AFC74490860514613983E
:1016E00008F084FE074671484168384608F07EFCE1
:1016F0006E4948605146149808F078FE07466B48DA
:101700008168384608F072FC6849886069490C981D
:1017100008600D9848600E98886015B0BDE8F08F9D
:101720002DE9F04F91B083468A4600200C900B9033
:101730000A900DA8FFF7DDFD4FF08040109908F0EA
:1017400055FE0190109908F051FE80464FF0404040
:101750000F9908F04BFE01900F9908F047FE814663
:10176000414608F04BFF07464FF07E5108F03EFC23
:10177000044608F00FFC05460E464FF080400D99D8
:1017800008F034FE8146109908F030FE07464FF00D
:1017900080400E9908F02AFE81460F9908F026FE37
:1017A0008046394608F022FC044608F0F3FB2A463E
:1017B0003346CDE9020106F04DFF81F000410022E1
:1017C000404BCDE9040108F0D5F84FF0C0423E4B44
:1017D000CDE9060107F0B2FECDE9080107F0C0FD32
:1017E000CBF800004FF080400D9908F0FFFD049009
:1017F0000F9908F0FBFD06904FF040400E9908F05D
:10180000F5FD0490109908F0F1FD0590069908F097
:10181000EDFB079008F0BEFBCDE9080106F0CAFC1D
:1018200081F0004180460022264B08F0A3F80646CE
:101830004FF0C042244B07F081FE044607F090FDB4
:10184000CBF804004FF080400F9908F0CFFD0190D5
:101850000F9908F0CBFD80464FF040400E9908F0FC
:10186000C5FD01900E9908F0C1FD8146414608F082
:10187000C5FE07464FF07E5108F0B8FB044608F05D
:1018800089FB23E08000002000007A44A0010020B2
:1018900035000020CDCCCCCCCCCCECBFB81E85EB39
:1018A00051B89E3FEC51B81E85EBB13F400200207D
:1018B000CCCCEC3F4C0200207000002005A3923AF3
:1018C000019D234000806640FB21094005460E46ED
:1018D0004FF080400D9908F089FD81460E9908F07F
:1018E00085FD07464FF080400F9908F07FFD814647
:1018F000109908F07BFD8046394608F077FB0446D6
:1019000008F048FB2A463346CDE9020106F0A2FE64
:101910000022FA4BCDE9040108F02CF84FF0C04248
:10192000F74BCDE9060107F009FECDE9080107F004
:1019300017FDCBF808000D98CAF800000E98CAF8F9
:1019400004000F98CAF808001098CAF80C0011B0EB
:10195000BDE8F08F07B5A6B000201F901E901D9027
:1019600020A8FFF7C6FCE74800680E90E64801682B
:101970000E9808F0A9FB0F90E44801680F9808F052
:101980003DFE1790DF4840680E90DF4801680E98D2
:1019900008F09AFB0F90DE4801680F9808F02EFEC1
:1019A0001890D84880680E90D74801680E9808F0C3
:1019B0008BFB0F90D74801680F9808F01FFE199015
:1019C00019980B9001460A9008F010FD0D90189898
:1019D00009900146089008F009FD0B9017980990AE
:1019E0000146089008F002FD0A900B9908F0FEFAF3
:1019F0000C900D9908F0FAFA0E9004F0A1FF014640
:101A00000F904FF07E5008F05FFBC3490860C34958
:101A1000C148006808F0EAFC0F9008F067FC81B24A
:101A2000279801802398014600904FF0804008F0ED
:101A3000DDFC0190239801460090019808F0D6FC47
:101A400003902298014600904FF0404008F0CEFCF1
:101A50000190229801460090019808F0C7FC02907E
:101A6000039908F0CBFD4FF07E51049008F0BEFAC8
:101A7000059008F08FFACDE9080120980146019001
:101A80004FF0804008F0B2FC02902398014601908C
:101A9000029808F0ABFC04902198014601904FF0A9
:101AA000804008F0A3FC0290229801460190029821
:101AB00008F09CFC0390049908F098FA059008F04F
:101AC00069FACDE90601DDE9082306F0C3FD00222D
:101AD0008A4BCDE90A0107F04DFF4FF0C042884B19
:101AE000CDE90C0107F02AFDCDE90E0107F038FC25
:101AF000269908602098014603904FF0804008F036
:101B000075FC0490229801460390049808F06EFC3E
:101B100006902198014603904FF0404008F066FC83
:101B20000490239801460390049808F05FFC059008
:101B3000069908F05BFA079008F02CFACDE9080145
:101B400006F038FB81F0004100226C4BCDE90A0120
:101B500007F010FF4FF0C042694BCDE90C0107F0D0
:101B6000EDFCCDE90E0107F0FBFB269948602298B9
:101B7000014600904FF0804008F038FC0190229818
:101B800001460090019808F031FC0390219801462D
:101B900000904FF0404008F029FC01902198014648
:101BA0000090019808F022FC0290039908F026FDAD
:101BB0004FF07E51049008F019FA059008F0EAF908
:101BC000CDE908012098014601904FF0804008F0CF
:101BD0000DFC0290219801460190029808F006FC45
:101BE00004902298014601904FF0804008F0FEFBDF
:101BF0000290239801460190029808F0F7FB0390A9
:101C0000049908F0F3F9059008F0C4F9CDE906014C
:101C1000DDE9082306F01EFD0022384BCDE90A015C
:101C200007F0A8FE4FF0C042354BCDE90C0107F09C
:101C300085FCCDE90E0107F093FB26998860289872
:101C400000285AD0269880683549069008F0CEFBC7
:101C5000079008F09FF90022284BCDE9080107F012
:101C60006DFCCDE90A0107F07BFB0F9026984068D8
:101C70002B49069008F0BAFB079008F08BF9002278
:101C80001E4BCDE9080107F059FCCDE90A0107F028
:101C900067FB0E90269800682149069008F0A6FB85
:101CA000079008F077F90022144BCDE9080107F0FE
:101CB00045FCCDE90A0107F053FB0D90014610A841
:101CC000DDE90E2304F029FF1AAA17A910A804F0D1
:101CD00080FF1448007848B313480078052802DBD9
:101CE0000020104908701C9800210F9008F04AFC51
:101CF0002BD800200B49087027E061E10080664086
:101D0000FB21094088020020D4010020540000205B
:101D1000580000205C0000208000002000007A4471
:101D2000DB0F4940A001002035000020FFE71C9890
:101D30000D9008F02FF9A34AA34BCDE90E0107F04F
:101D4000DDFD02D20120A14908701A980C9001F023
:101D500092FB0D9008F01EF99D4A9E4BCDE90E01B5
:101D600007F0CCFD58D21B980C9001F084FB0D902D
:101D700008F010F9984A994BCDE90E0107F0BEFD25
:101D80004AD21C980C9001F076FB0D9008F002F9F5
:101D90008F4A904BCDE90E0107F0B0FD3CD20020F8
:101DA0001A901B901C908E480078401C8C4908703B
:101DB0008C4800680B9008F0EDF8824A8A4BCDE918
:101DC0000C0107F0D7FDCDE90E0107F0C9FA8549EE
:101DD0000860084640680B9008F0DCF8794A824BAE
:101DE000CDE90C0107F0C6FDCDE90E0107F0B8FA08
:101DF0007C494860084680680B9008F0CBF8714A2F
:101E0000794BCDE90C0107F0B5FDCDE90E0107F0E6
:101E1000A7FA7449886002E00020714908701A9896
:101E200014901B9815901C981690704800680E909E
:101E30001A980D900E9908F0D9F84FF080410F9044
:101E400008F042F91A90694840680E901B980D906E
:101E50000E9908F0CBF84FF080410F9008F034F95C
:101E60001B90624880680E901C980D900E9908F0A7
:101E7000BDF84FF080410F9008F026F91C905C48A7
:101E8000006808F087F8CDE90A015948006808F0B1
:101E900081F8584A584BCDE9060107F06BFDCDE9B2
:101EA0000801DDE90A2307F065FD00224FF08043B9
:101EB000CDE90C0107F042FBCDE90E0107F050FA25
:101EC00025901A980D90259908F090FA0F904548A2
:101ED00000680D90464801680D9808F087FA0E904A
:101EE0000F9908F083F8289908601B980D902599A0
:101EF00008F07CFA0F903B4840680D903C48016820
:101F00000D9808F073FA0E900F9908F06FF8289961
:101F100048601C980D90259908F068FA0F90314898
:101F200080680D90324801680D9808F05FFA0E90B5
:101F30000F9908F05BF8289988602D48006808F030
:101F400029F82C4A2C4BCDE90C0107F013FDCDE903
:101F50000E0107F005FA24901A980E90249908F0C3
:101F600045FA0F901F48006801460E900F9808F040
:101F70003DF81C4908601B980E90249908F036FA29
:101F80000F901848406801460E900F9808F02EF800
:101F9000144948601C980E90249908F027FA0F9075
:101FA0001048806801460E900F9808F01FF80D4900
:101FB00088600E49149808601598486016988860E3
:101FC00029B000BDCDCCCCCCCCCCECBFA001002046
:101FD000B81E85EB51B89E3FEC51B81E85EBB13F62
:101FE0003500002040020020CCCCEC3F4C02002009
:101FF0007000002005A3923A019D234008B50121FD
:102000000D2003F023FB4FF48170ADF80000102089
:102010008DF8030002208DF8020069464E4803F057
:1020200063F82020ADF8000010208DF80300022096
:102030008DF802006946494803F056F87020ADF863
:10204000000003208DF8020048208DF80300694647
:10205000414803F049F82021404803F0F0F808BD5A
:1020600000B589B00121022003F0F0FA0121082017
:1020700003F0ECFA01213A4803F005F92020ADF80D
:10208000040018208DF8070003208DF8060001A930
:10209000324803F029F8C820ADF81C001420ADF830
:1020A00018000020ADF81E00ADF81A008DF82000D1
:1020B00006A92C4803F006FC6020ADF808000120BA
:1020C000ADF80A000220ADF810001420ADF80E00A3
:1020D00002A9244803F075FC0020ADF80A0002A90B
:1020E000204803F02CFC02A91E4803F0B7FC08218D
:1020F0001C4804F07CF801211A4804F03FF8012143
:10210000184803F03BFF0121164803F043FF09B0D4
:1021100000BD15481549097830F8210011493431BE
:10212000088012480078401CC0B210490870282866
:1021300001D100200870704710B52021074803F036
:1021400071F820B12021054803F07BF803E020213D
:10215000024803F074F810BD00080140000C014073
:10216000000C1A0000040040880000202801002014
:102170002DE9F0430446DDE907560027012041E040
:10218000DFF804C53CF81080A0F1010CDFF8F894EA
:1021900029F81C8009F1160C3CF81090A0F1010CF4
:1021A000DFF8E48408F1160828F81C9008F1160CF2
:1021B0003CF81090A0F1010C08F1160828F81C90CA
:1021C00008F1160C3CF81090A0F1010C08F116086B
:1021D00028F81C9008F1160C3CF81090A0F1010CA6
:1021E00008F1160828F81C9008F1160C3CF810901D
:1021F000A0F1010C08F1160828F81C9000F1010C60
:102200000CF0FF000A28BBDBDFF87CC4ACF81240FE
:10221000ACF82810ACF83E20ACF85430ACF86A505A
:10222000ACF88060ACF81440ACF82A10ACF8402050
:10223000ACF85630ACF86C50ACF88260BDE8F08376
:1022400038B50446032302226B21D0200094FEF708
:10225000CDFA38BD38B50446022304221B21D02014
:102260000094FEF7C3FA38BD38B5044602230422B1
:102270001C21D0200094FEF7B9FA38BD10B50446F1
:10228000234606226B21D020FEF7E5FA10BD10B5DB
:10229000FE4B01227521D020FEF73EFAFB48007864
:1022A00010BD10B5FFF7F3FF682801D1012010BD64
:1022B0000020FCE710B50446234605226A21D02001
:1022C000FEF7C9FA10BD10B5044623460122372196
:1022D000D020FEF7C0FA10BD6FF00D00EC49088069
:1022E0000F20EC4908806FF00600EB49088070472A
:1022F00010B54021E94802F088FF012800D110BD47
:102300000020FCE72DE9FC4704460D4616461F4613
:10231000DDE90B9ADDF82880FFF7EAFF002877D087
:10232000DA4B0E223B21D020FEF7F6F9D748407851
:10233000D649097840EA012000B2D9490880D3483B
:10234000C078D249897840EA012000B2D549088096
:10235000CE484079CD49097940EA012000B2D249FE
:102360000880CA48407AC949097A40EA012000B287
:10237000CE490880C548C07AC449897A40EA01201C
:1023800000B2CB490880C148407BC049097B40EA84
:10239000012000B2C74908800846B0F90000C449CE
:1023A000B1F90010CDE90010C048B0F90030BE48C6
:1023B000B0F90020BB48B0F90010B948B0F90000EE
:1023C000FFF7D6FEB048808A2080AF48408D288035
:1023D000AD48B0F840003080AB48B0F85600AC498A
:1023E0000988401A00B23880A748B0F86C00A949A3
:1023F0000988401A00B2A8F80000A348B0F882008B
:10240000A5490988401A00B2A9F8000024E0FFE7B6
:102410009D48808A20809C48408D28809A48B0F84A
:10242000400030809848B0F8560099490988401A11
:1024300000B238809448B0F86C0096490988401A78
:1024400000B2A8F800009048B0F8820092490988CC
:10245000401A00B2A9F80000BAF1010F11D120888A
:1024600095490988401A00B2208028889349098834
:10247000401A00B22880308891490988401A00B279
:102480003080BDE8FC8710B586B00120FFF7D8FE8C
:102490000F208C49087008460078C0F38100FFF7D0
:1024A000D9FE8849097801F00300FFF7DDFE00201E
:1024B000FFF7E4FE0020FFF7FDFE0120FFF703FF1A
:1024C000002307223721D020FEF7C5F9002306227A
:1024D0003721D020FEF7BFF9012305223721D02074
:1024E000FEF7B9F9012304223721D020FEF7B3F912
:1024F000012300223821D020FEF7ADF9002411E09D
:102500003220FDF79BFF01220DF1160005A9031FE4
:10251000CDE90102009104AA891F03A8FFF7F2FE8A
:10252000601CC4B20A2CEBDBFFF7D6FE6FF007008D
:10253000614908801920614908808D206049088020
:1025400006B010BDF0B5DDE905454F4EB68A5A4FCD
:102550003F88F61B36B206804B4E768D574F3F882C
:10256000F61B36B20E80484EB6F84060544F3F8896
:10257000F61B36B21680444EB6F85660444F3F887C
:10258000F61B36B21E80404EB6F86C60414F3F8855
:10259000F61B36B226803C4EB6F882603E4F3F882E
:1025A000F61B36B22E80F0BD2DE9F04F87B0002526
:1025B00000260027A8461FE0C820FDF73FFF0022A5
:1025C0000DF11A0006A9031FCDE90102009105AA29
:1025D000891F04A8FFF796FEBDF81000284405B235
:1025E000BDF81200304406B2BDF81400384407B2FA
:1025F00008F1010000F0FF08B8F1010FDCDB304604
:1026000007F094FE834600F036FF8146284607F027
:102610008DFE834600F02FFF8246494607F0B2FF49
:1026200017D8384607F082FE834600F024FF814623
:10263000284607F07BFE834600F01DFF8246494690
:1026400007F0A0FF05D8002D01DA002451E0012495
:102650004FE0284607F06AFE834600F00CFF8146F3
:10266000304607F063FE834600F005FF8246494688
:1026700007F088FF38D8384607F058FE834600F048
:10268000FAFE814630461FE0BA020020AC0200206C
:102690002A0100202C0100202E010020000801400A
:1026A0004201002044010020460100204801002092
:1026B0004A0100204C01002030010020320100209E
:1026C00034010020B501002007F030FE834600F001
:1026D000D2FE8246494607F055FF05D8002E01DAA2
:1026E000022406E0032404E0002F01DA042400E0C1
:1026F0000524062C76D2DFE804F00316293C4F624D
:102700005C4805805C48008860B15B49B1F9001005
:10271000584AB2F90020881800EBD071491009B26C
:10272000564A11805EE0544805805248008860B1E6
:102730005349B1F90010534AB2F90020881800EB50
:10274000D071491009B2504A11804BE04D480680C3
:102750004B48008860B14A49B1F90010494AB2F9C2
:102760000020881800EBD071491009B2464A118048
:1027700038E0434806804348008860B14049B1F9D9
:102780000010404AB2F90020881800EBD0714910BF
:1027900009B23D4A118025E03C4807803C4800884A
:1027A00060B13B49B1F90010384AB2F900208818ED
:1027B00000EBD071491009B2364A118012E034485A
:1027C00007803248008860B13149B1F900102F4AC2
:1027D000B2F90020881800EBD071491009B22D4AD7
:1027E000118000BF00BF2B48B0F900202648B0F987
:1027F00000102248B0F9000000F0A2FB204607B00C
:10280000BDE8F08F70B506460C4615462248068096
:102810002248048022480580B0F900201F48B0F902
:1028200000101D48B0F9000000F08AFB70BD2DE9D2
:10283000F04107460D4616461A48007800F003049A
:1028400047FA04F00D49088045FA04F00E49088063
:1028500046FA04F00F4908800846B0F900200A48FB
:10286000B0F900100548B0F9000000F069FBBDE8C0
:10287000F0810000380100203601002030010020E6
:102880003A0100203C0100203201002040010020DC
:102890003E01002034010020180000201A00002012
:1028A0001C000020B501002008B526208DF800008E
:1028B00001208DF8010008208DF8020001208DF81C
:1028C0000300684602F047FB08BD10B586B0044619
:1028D0000121FE4802F0C7FE0420ADF814001820C4
:1028E0008DF8170003208DF8160005A9F84802F0AE
:1028F000FBFB0820ADF8140004208DF8170005A993
:10290000F34802F0F1FB01940020ADF80800ADF8A7
:102910000A00ADF80C00ADF810000C20ADF80E0068
:1029200001A9EC4803F04BFE002240F22771E94870
:1029300003F0DDFE4021E74803F0B5FF012240F23D
:102940002551E44803F0D3FE0121E24803F0C3FE21
:10295000FFF7AAFF06B010BD10B50446DE480178A7
:102960000078401CDC4A1070DC484454012240F2DC
:102970002771D84803F0BBFE10BD10B500BFD54885
:10298000008810F0200FFAD0D24803F015FFC0B233
:1029900010BD10B504460FE020780D2802D1FFF7D6
:1029A000DBFF08E020780A2802D1FFF7D5FF02E01C
:1029B0002078FFF7D1FF641C20780028ECD110BDEF
:1029C00010B504460A20B0EB241F05DD302101EBD1
:1029D0002410FFF7C1FF06E00A21C1EB24114131A9
:1029E000C8B2FFF7B9FF04F00F000A2806DA04F0B6
:1029F0000F0101F13000FFF7AFFF05E004F00F0118
:102A00003731C8B2FFF7A8FF2020FFF7A5FF10BDA0
:102A100010B504462012FFF7D3FFE0B2FFF7D0FF56
:102A200010BD10B50446200CFFF7F2FFA0B2FFF76F
:102A3000EFFF10BD2DE9F0410546A94C002713E03A
:102A4000B5FBF4F0C6B2002E02DC0FB9012C05D1A3
:102A500006F13001C8B2FFF77FFF012706FB1455CE
:102A60000A20B4FBF0F400BF002CE9D1BDE8F081EE
:102A700010B50446002C04DA604204B22D20FFF7A2
:102A80006BFF2046FFF7D6FF10BD70B50446002C43
:102A900004DA604204B22D20FFF75EFF0A2094FBA7
:102AA000F0F52846FFF7C6FF2E20FFF755FF0A2056
:102AB00094FBF0F100FB11452846FFF7BBFF70BD0A
:102AC00070B504460D46002C02DAC4F5004004B28D
:102AD000C4F307263046FFF73FFF286830442860DC
:102AE000E6B23046FFF738FF28683044286070BDF2
:102AF00070B506460C46C6F307252846FFF72CFF9F
:102B0000206828442060F5B22846FFF725FF20689A
:102B10002844206070BD2DE9F3410D466C46A61C8B
:102B2000B4F9007029463846FFF7E2FFB6F9008095
:102B300029464046FFF7DCFFBDE8FC812DE9F04166
:102B40000446002714B12078002801DCBDE8F0819C
:102B50002078861CA520FFF7FFFE5A20FFF7FCFE19
:102B6000F0B2FFF7F9FE3744012506E0605DFFF79C
:102B7000F3FE605D0744681C05B22078A842F5DCCE
:102B8000F8B2FFF7E9FEAA20FFF7E6FE00BFDDE797
:102B9000C0F307220A70C2B24A7070472DE9F341B0
:102BA0000C466D46AE1CB5F9007021463846FFF75D
:102BB000EFFFB6F90080A11C4046FFF7E9FFBDE832
:102BC000FC81F0B50546059C20784FF0A70C074620
:102BD000401C04F807C0C5F3072C0746401C04F846
:102BE00007C00746401CE555C1F3072C0746401CAB
:102BF00004F807C00746401CE155C2F3072C0746FE
:102C0000401C04F807C00746401CE255C3F3072CDC
:102C10000646471C38B204F806C00646471C38B2C0
:102C2000A3552070F0BD2DE9F04F06460F469046A3
:102C30009946DDF824B0DDF838A0109C2578A42250
:102C400029466D1C6254C6F3072229466D1C625446
:102C500029466D1C6654C7F3072229466D1C625431
:102C600029466D1C6754C8F3072229466D1C62541F
:102C700029466D1C04F80180C9F307222846691C07
:102C80000DB222542846691C0DB204F80090CBF313
:102C900007222846691C0DB222542846691C0DB231
:102CA00004F800B00A98C0F307222846691C0DB248
:102CB00022540A98C2B22846691C0DB222540B98BD
:102CC000C0F307222846691C0DB20BE00400020085
:102CD00000080140004400404F0100203E03002056
:102CE000A086010022540B98C2B22846691C0DB27E
:102CF00022540C98C0F307222846691C0DB22254B6
:102D00000C98C2B22946681C05B262540D98C0F3F3
:102D100007222946681C05B262540D98C2B22846A3
:102D2000691C0DB222546119DAF80000FFF736FF72
:102D30006219111DDAF80400FFF730FF621902F181
:102D40000801DAF80800FFF729FF05F10C0005B2C9
:102D50000F98C0F307222846691C0DB222540F9821
:102D6000C2B22846691C0DB222542570BDE8F08F0E
:102D7000F0B506460F4614462578A32229466D1C59
:102D8000625461193068FFF709FF6219111D7068FC
:102D9000FFF704FF621902F10801B068FFF7FEFEB9
:102DA000621902F10C01B068FFF7F8FE1035C7F3A5
:102DB000072229466D1C625429466D1C67542570F4
:102DC000F0BD38B50446AE200090A520FFF7C4FD45
:102DD0005A20FFF7C1FD0620FFF7BEFDA820FFF730
:102DE000BBFD69462046FFF783FE0099C8B2FFF796
:102DF000B3FDAA20FFF7B0FD38BDF8B507460C4675
:102E000015461E46B7200090A520FFF7A5FD5A20C5
:102E1000FFF7A2FD1420FFF79FFDA320FFF79CFD05
:102E200069463846FFF777FE69462046FFF773FE8E
:102E300069462846FFF76FFE69463046FFF76BFE8E
:102E40000099C8B2FFF788FDAA20FFF785FDF8BDFD
:102E5000F8B506460C461546B1200090A520FFF7B0
:102E60007BFD5A20FFF778FD0A20FFF775FDA720AC
:102E7000FFF772FD69463046FFF73AFE6946204685
:102E8000FFF736FE69462846FFF732FE0099C8B2C2
:102E9000FFF762FDAA20FFF75FFDF8BD2DE9F84FAF
:102EA00080460D4616461F46DDE90BABDDF828903F
:102EB0000F9CC6200090A520FFF74EFD5A20FFF77B
:102EC0004BFD2220FFF748FDA420FFF745FD694692
:102ED0004046FFF70DFE69462846FFF709FE6946A2
:102EE0003046FFF705FE69463846FFF701FE6946A2
:102EF0004846FFF7FDFD69465046FFF7F9FD694674
:102F00005846FFF7F5FD69460D98FFF7F1FD694654
:102F10000E98FFF7EDFD69462068FFF7FCFD694656
:102F20006068FFF7F8FD6946A068FFF7F4FD0099B7
:102F3000C8B2FFF711FDAA20FFF70EFDBDE8F88F1C
:102F4000F8B506460C461546AA200090A520FFF7C6
:102F500003FD5A20FFF700FD0A20FFF7FDFCA0202B
:102F6000FFF7FAFC69463046FFF7C2FD6946204686
:102F7000FFF7BEFD69462846FFF7BAFD0099C8B2C3
:102F8000FFF7EAFCAA20FFF7E7FCF8BDF8B5064614
:102F90000C461546B0200090A520FFF7DDFC5A2016
:102FA000FFF7DAFC0A20FFF7D7FCA620FFF7D4FCD6
:102FB00069463046FFF79CFD69462046FFF798FDBD
:102FC00069462846FFF794FD0099C8B2FFF7C4FC94
:102FD000AA20FFF7C1FCF8BD2DE9F05F06460F46B9
:102FE00090469946DDE90AABB324A520FFF7B4FC6F
:102FF0005A20FFF7B1FC1220FFF7AEFCA120FFF72B
:10300000ABFC002E02DAC6F5004006B2C6F3072577
:103010002846FFF7A1FC2C44F5B22846FFF79CFC9C
:103020002C44002F02DAC7F5004007B2C7F307258A
:103030002846FFF791FC2C44FDB22846FFF78CFC94
:103040002C44B8F1000F03DAC8F500400FFA80F8FD
:10305000C8F307252846FFF77FFC2C4408F0FF053E
:103060002846FFF779FC2C44B9F1000F03DAC9F5C3
:1030700000400FFA80F9C9F307252846FFF76CFCDA
:103080002C4409F0FF052846FFF766FC2C44BAF1F2
:10309000000F03DACAF500400FFA80FACAF30725D9
:1030A0002846FFF759FC2C440AF0FF052846FFF795
:1030B00053FC2C44BBF1000F03DACBF500400FFAB0
:1030C00080FBCBF307252846FFF746FC2C440BF08A
:1030D000FF052846FFF740FC2C440C98C0F3072559
:1030E0002846FFF739FC2C440C98C5B22846FFF758
:1030F00033FC2C44E0B2FFF72FFCAA20FFF72CFC96
:10310000BDE8F09F2DE9F05F06460F4690469946D0
:10311000DDE90AABB824A520FFF71EFC5A20FFF713
:103120001BFC1620FFF718FCA220FFF715FC002E51
:1031300002DAC6F5004006B2C6F307252846FFF7B7
:103140000BFC2C44F5B22846FFF706FC2C44002F5C
:1031500002DAC7F5004007B2C7F307252846FFF794
:10316000FBFB2C44FDB22846FFF7F6FB2C44B8F1DC
:10317000000F03DAC8F500400FFA80F8C8F30725FE
:103180002846FFF7E9FB2C4408F0FF052846FFF727
:10319000E3FB2C44B9F1000F03DAC9F500400FFA44
:1031A00080F9C9F307252846FFF7D6FB2C4409F020
:1031B000FF052846FFF7D0FB2C44BAF1000F03DAD5
:1031C000CAF500400FFA80FACAF307252846FFF730
:1031D000C3FB2C440AF0FF052846FFF7BDFB2C4437
:1031E000BBF1000F03DACBF500400FFA80FBCBF305
:1031F00007252846FFF7B0FB2C440BF0FF052846B7
:10320000FFF7AAFB2C440C98002804DA0C98C0F5B0
:10321000004000B20C900C98C0F307252846FFF739
:103220009BFB2C440C98C5B22846FFF795FB2C4419
:103230000D98002804DA0D98C0F5004000B20D90FA
:103240000D98C0F307252846FFF786FB2C440D9800
:10325000C5B22846FFF780FB2C440E98002804DAFC
:103260000E98C0F5004000B20E900E98C0F30725EE
:103270002846FFF771FB2C440E98C5B22846FFF78D
:103280006BFB2C44E0B2FFF767FBAA20FFF764FB5F
:10329000BDE8F09F10B540F227717D4803F00CFBAC
:1032A000E0B17C4802780078401C7A4B18707A486C
:1032B000815C774803F07CFA40F22771744803F090
:1032C00025FB7448007875490978884267D1002247
:1032D00040F227716E4803F00AFA60E040F225518F
:1032E0006B4803F0E9FA002859D0694803F064FA02
:1032F000C4B2A52C0DD16A48007840F0800068491E
:10330000087068490878411C664A117066490C5477
:1033100037E05A2C1CD16248007810F0800F09D099
:103320000020604908705E48007820F040005C4949
:10333000087006E05B490878411C5A4A11705A49E6
:103340000C545748007820F080005549087018E068
:1033500054490878411C534A117053490C54504841
:10336000007820F080004E4908704F4800781146E0
:103370000978884205D14A48007840F04000484921
:10338000087048480078642804D146480078401EF8
:103390004449087040F225513D4803F0B7FA10BD8A
:1033A00030B502460023002106E03F48405C5054FF
:1033B000505C0344481CC1B23B480078801E8842E0
:1033C000F3DCDCB238480078801E374D285C84423C
:1033D00001D1012030BD0020FCE710B50446304883
:1033E000007810F0400F0CD02D48007820F04000FD
:1033F0002B4908702046FFF7D3FF10B12A484078C8
:1034000010BDFF20FCE701462748405C704710B51F
:10341000254B9B78244CE47843EA04231BB20380B9
:10342000214B1B79204C647943EA04231BB20B80A7
:103430001D4B9B791C4CE47943EA04231BB2138097
:1034400010BD10B5184B9B78174CE47843EA042361
:103450001BB20380144B1B79134C647943EA042399
:103460001BB20B80104B9B790F4CE47943EA042389
:103470001BB2138010BD10B504460021204607F092
:1034800081F801D2204610BD84F00040FBE7000027
:10349000004400404E0100203E0300204F01002068
:1034A00051010020500100204004002008B52520D3
:1034B0008DF8000001208DF8010007208DF8020032
:1034C00001208DF80300684601F045FD08BD10B5E8
:1034D00086B00446012144F2040002F0B7F84FF42C
:1034E0000070ADF814001C208DF8170003208DF833
:1034F000160005A9FE4801F0F7FD4FF48060ADF815
:10350000140004208DF8170005A9F94801F0ECFD1E
:1035100001940020ADF80800ADF80A00ADF80C00E9
:10352000ADF810000C20ADF80E0001A9F14803F031
:1035300046F80121EF4803F0CEF8012240F227714E
:10354000EC4803F0D4F8012240F22551E94803F099
:10355000CEF84021E74803F0A6F98021E54803F0C2
:10356000A2F92021E34803F09EF9FFF79FFF06B080
:1035700010BD10B50446E04801780078401CDE4AD2
:103580001070DE484454012240F22771D94803F0FC
:10359000AEF810BD10B500BFD648008810F0200F5F
:1035A000FAD0D44803F008F9C0B210BD10B50446F3
:1035B0000FE020780D2802D1FFF7DBFF08E020782C
:1035C0000A2802D1FFF7D5FF02E02078FFF7D1FFEC
:1035D000641C20780028ECD110BD10B504460A20E8
:1035E000B0EB241F05DD302101EB2410FFF7C1FFF4
:1035F00006E00A21C1EB24114131C8B2FFF7B9FF3F
:1036000004F00F000A2806DA04F00F0101F130007F
:10361000FFF7AFFF05E004F00F013731C8B2FFF745
:10362000A8FF2020FFF7A5FF10BD10B5044620120B
:10363000FFF7D3FFE0B2FFF7D0FF10BD10B504468F
:10364000200CFFF7F2FFA0B2FFF7EFFF10BD2DE94E
:10365000F0410546AA4C002713E0B5FBF4F0C6B2D2
:10366000002E02DC0FB9012C05D106F13001C8B2E1
:10367000FFF77FFF012706FB14550A20B4FBF0F487
:1036800000BF002CE9D1BDE8F08110B50446002C44
:1036900004DA604204B22D20FFF76BFF2046FFF7EB
:1036A000D6FF10BD70B50446002C04DA604204B2A7
:1036B0002D20FFF75EFF0A2094FBF0F52846FFF768
:1036C000C6FF2E20FFF755FF0A2094FBF0F100FB08
:1036D00011452846FFF7BBFF70BD70B504460D4687
:1036E000002C02DAC4F5004004B2C4F307263046C9
:1036F000FFF73FFF286830442860E6B23046FFF706
:1037000038FF28683044286070BD70B506460C4606
:10371000C6F307252846FFF72CFF206828442060C1
:10372000F5B22846FFF725FF20682844206070BDC9
:103730002DE9F3410D466C46A61CB4F900702946EC
:103740003846FFF7E2FFB6F9008029464046FFF70A
:10375000DCFFBDE8FC8138B50446AE200090A52012
:10376000FFF707FF5A20FFF704FF0620FFF701FFCE
:10377000A820FFF7FEFE69462046FFF7C6FF009926
:10378000C8B2FFF7F6FEAA20FFF7F3FE38BD2DE919
:10379000F0410446002714B12078002801DCBDE880
:1037A000F0812078861CA520FFF7E3FE5A20FFF762
:1037B000E0FEF0B2FFF7DDFE3744012506E0605D74
:1037C000FFF7D7FE605D0744681C05B22078A84269
:1037D000F5DCF8B2FFF7CDFEAA20FFF7CAFE00BF66
:1037E000DDE7F8B507460C4615461E46B7200090A3
:1037F000A520FFF7BEFE5A20FFF7BBFE1420FFF7FF
:10380000B8FEA320FFF7B5FE69463846FFF790FFE4
:1038100069462046FFF78CFF69462846FFF788FF78
:1038200069463046FFF784FF0099C8B2FFF7A1FE52
:10383000AA20FFF79EFEF8BDF8B506460C461546D1
:10384000B1200090A520FFF794FE5A20FFF791FECB
:103850000A20FFF78EFEA720FFF78BFE6946304651
:10386000FFF753FF69462046FFF74FFF694628469A
:10387000FFF74BFF0099C8B2FFF77BFEAA20FFF7C6
:1038800078FEF8BD2DE9F84F80460D4616461F46D6
:10389000DDE90BABDDF828900F9CC6200090A52039
:1038A000FFF767FE5A20FFF764FE2220FFF761FE54
:1038B000A420FFF75EFE69464046FFF726FF6946F3
:1038C0002846FFF722FF69463046FFF71EFF69468C
:1038D0003846FFF71AFF69464846FFF716FF694664
:1038E0005046FFF712FF69465846FFF70EFF09E002
:1038F000000801400038014053010020A4040020CA
:10390000A086010069460D98FFF7FFFE69460E98F4
:10391000FFF7FBFE69462068FFF70AFF694660680B
:10392000FFF706FF6946A068FFF702FF0099C8B2DB
:10393000FFF71FFEAA20FFF71CFEBDE8F88FF8B5C1
:1039400006460C461546AA200090A520FFF711FE5A
:103950005A20FFF70EFE0A20FFF70BFEA020FFF70C
:1039600008FE69463046FFF7D0FE69462046FFF75D
:10397000CCFE69462846FFF7C8FE0099C8B2FFF79B
:10398000F8FDAA20FFF7F5FDF8BDF8B506460C4690
:103990001546B0200090A520FFF7EBFD5A20FFF759
:1039A000E8FD0A20FFF7E5FDA620FFF7E2FD6946E6
:1039B0003046FFF7AAFE69462046FFF7A6FE694695
:1039C0002846FFF7A2FE0099C8B2FFF7D2FDAA2051
:1039D000FFF7CFFDF8BD2DE9F05F06460F46904694
:1039E0009946DDE90AABB324A520FFF7C2FD5A20B2
:1039F000FFF7BFFD1220FFF7BCFDA120FFF7B9FDC7
:103A0000002E02DAC6F5004006B2C6F307252846A6
:103A1000FFF7AFFD2C44F5B22846FFF7AAFD2C4472
:103A2000002F02DAC7F5004007B2C7F30725284682
:103A3000FFF79FFD2C44FDB22846FFF79AFD2C446A
:103A4000B8F1000F03DAC8F500400FFA80F8C8F3A8
:103A500007252846FFF78DFD2C4408F0FF05284672
:103A6000FFF787FD2C44B9F1000F03DAC9F50040D8
:103A70000FFA80F9C9F307252846FFF77AFD2C4491
:103A800009F0FF052846FFF774FD2C44BAF1000F3A
:103A900003DACAF500400FFA80FACAF30725284670
:103AA000FFF767FD2C440AF0FF052846FFF761FD8C
:103AB0002C44BBF1000F03DACBF500400FFA80FB7A
:103AC000CBF307252846FFF754FD2C440BF0FF05E8
:103AD0002846FFF74EFD2C440C98C0F307252846D6
:103AE000FFF747FD2C440C98C5B22846FFF741FD6F
:103AF0002C44E0B2FFF73DFDAA20FFF73AFDBDE8F8
:103B0000F09F2DE9F05F06460F4690469946DDE9A5
:103B10000AABB824A520FFF72CFD5A20FFF729FD9A
:103B20001620FFF726FDA220FFF723FD002E02DA64
:103B3000C6F5004006B2C6F307252846FFF719FD73
:103B40002C44F5B22846FFF714FD2C44002F02DA6E
:103B5000C7F5004007B2C7F307252846FFF709FD60
:103B60002C44FDB22846FFF704FD2C44B8F1000FA9
:103B700003DAC8F500400FFA80F8C8F30725284695
:103B8000FFF7F7FC2C4408F0FF052846FFF7F1FC8F
:103B90002C44B9F1000F03DAC9F500400FFA80F99F
:103BA000C9F307252846FFF7E4FC2C4409F0FF057C
:103BB0002846FFF7DEFC2C44BAF1000F03DACAF501
:103BC00000400FFA80FACAF307252846FFF7D1FC18
:103BD0002C440AF0FF052846FFF7CBFC2C44BBF130
:103BE000000F03DACBF500400FFA80FBCBF307257B
:103BF0002846FFF7BEFC2C440BF0FF052846FFF7D4
:103C0000B8FC2C440C98002804DA0C98C0F500404D
:103C100000B20C900C98C0F307252846FFF7A9FCCA
:103C20002C440C98C5B22846FFF7A3FC2C440D98F1
:103C3000002804DA0D98C0F5004000B20D900D98F0
:103C4000C0F307252846FFF794FC2C440D98C5B215
:103C50002846FFF78EFC2C440E98002804DA0E98B4
:103C6000C0F5004000B20E900E98C0F3072528461C
:103C7000FFF77FFC2C440E98C5B22846FFF779FC6D
:103C80002C44E0B2FFF775FCAA20FFF772FCBDE8F8
:103C9000F09F00002DE9F04706460C46002700255E
:103CA00009E056F8250006F041FB8046394606F04B
:103CB0009DF907466D1CA542F3DB204606F036FB56
:103CC00081464946384606F0FFF9804606F0F2FA8A
:103CD000BDE8F08710B50446FD48FE49097840F874
:103CE0002140FC490978481CC11700EBD1614911FA
:103CF000A0EB4111F74A11702021F548FFF7CAFFE8
:103D0000F549086010BD10B50446F448F449097837
:103D100040F82140F2490978481CC11700EBD161F5
:103D20004911A0EB4111EE4A11702021EB48FFF739
:103D3000B1FFEC49086010BD10B50446EA48EB49F4
:103D4000097840F82140E9490978481CC11700EB7F
:103D5000D1614911A0EB4111E44A11702021E248E0
:103D6000FFF798FFE249086010BDE149096801606A
:103D70007047DC49096801607047D74909680160EC
:103D8000704770B504460D46164633462A4621460E
:103D9000EE20FCF7C1FC70BD70B504460D462A4606
:103DA0002146EE20FCF718FD70BD2DE9F34F83B0DE
:103DB0008346049858B1CF480078342202EB801033
:103DC000C1B2F420FFF7E8FF1E20FCF71CFBCA4A33
:103DD0000321F620FFF7D5FFC74800780004C64945
:103DE000497840EA0120C44989780843C149B1F9BA
:103DF0000010C1F1080108410290C0480068A0F518
:103E00007A6404FB04F00013BD49B1F90010484383
:103E1000C612BC48B0F900006043C712F019019007
:103E2000B948B0F900A0019800EB8A00B1490978BF
:103E300000FA01FA0AF1020081100091B348B0F9CA
:103E400000006043461304FB04F00013B049B1F9CD
:103E5000001048430714F019801C80100190AD48F1
:103E60000188019800F5004041434FEAD13900999B
:103E70000298401A9F490A784CF25031114100FBD8
:103E800001F8B8F1004F04D24FEA4800B0FBF9F551
:103E900002E098FBF9F045002812291200FB01F618
:103EA00040F6DE30704306149B4868430714F0194F
:103EB00000F6CF6005EB2010CBF8000005B0BDE8A0
:103EC000F08F2DE9F34F89B0824608A80A99FFF7D1
:103ED0006CFF0898FFF717FF8248006808908F482A
:103EE000006805F0E0FCCDE906018D48006806F0A9
:103EF0001DFA0190089806F019FA0090019906F051
:103F0000E3F8834606F046F8864A874BCDE902017E
:103F100004F0B6FC06460022844B05F05FFE044622
:103F20000022834B05F026FDCDE90401DDE90623DF
:103F300005F048FA804605F059FCCAF800000BB0BD
:103F4000BDE8F08F2DE9F047054635B12E21F4206C
:103F5000FFF722FF0A20FCF756FA674A0221F620F3
:103F6000FFF70FFF644840786349097840EA01266B
:103F700070480088301A704909884843C4136F4854
:103F8000B0F900806E48B0F900904FEAC82004EB09
:103F9000090190FBF1F7E01958490860BDE8F08786
:103FA00070B504460D462846FFF7CCFF534800681D
:103FB00008300011206070BD10B5624800780128FB
:103FC00006D0022810D0032826D004284AD134E095
:103FD0002E21F420FFF7E0FE02205A490870FCF77A
:103FE000EFFD5949086041E0FCF7EAFD56490968D0
:103FF000401A41F2707188420DD90020FFF7A2FFEC
:1040000000213548FFF7CCFF33480068FFF762FE18
:1040100003204C49087029E036480078342202EB2E
:104020008010C1B2F420FFF7B7FE042045490870A4
:10403000FCF7C6FD4449086018E0FCF7C1FD4249A1
:104040000968401A47F2305188420AD900212848AD
:10405000FFF737FF26480068FFF76EFE0120394959
:10406000087003E001203749087000BF00BF10BD91
:1040700010B5214A0221AA20FFF783FE1E4840788E
:104080001D49097840EA012000B21F4908801A4AF8
:104090000221AC20FFF775FE1748407816490978D1
:1040A00040EA012000B217490880134A0221AE20DD
:1040B000FFF767FE104840780F49097840EA012071
:1040C00000B2124908800C4A0221B0203EE00000F4
:1040D000A80500205401002094010020280600209B
:1040E0005501002098010020A8060020560100205C
:1040F0009C0100207C01002078010020700100203C
:10410000600100205A010020580100205C010020BD
:104110005E0100206801002043E3FFFF80010020D2
:1041200088010020EBE2361AC05BC83F0000F03F78
:104130001AE950416C0100206A010020640100204E
:10414000660100209001002074010020FFF719FE95
:10415000764840787549097840EA0120744908801A
:10416000724A0221B220FFF70CFE704840786F4976
:10417000097840EA01206F4908806C4A0221B42086
:10418000FFF7FFFD694840786849097840EA012057
:1041900069490880654A0221B620FFF7F2FD6348AD
:1041A00040786249097840EA012000B263490880FA
:1041B0005E4A0221B820FFF7E4FD5C4840785B4985
:1041C000097840EA012000B25D490880574A02217F
:1041D000BA20FFF7D6FD554840785449097840EA9F
:1041E000012000B257490880504A0221BC20FFF745
:1041F000C8FD4E4840784D49097840EA012000B298
:1042000051490880494A0221BE20FFF7BAFD4748BC
:1042100040784649097840EA012000B24B490880BD
:1042200010BD4B49088070472DE9F34F89B0824695
:1042300008A80A99FFF7B9FD4648006805F033FB66
:10424000CDE906014448006806F070F84349009043
:1042500005F03AFF4FF07E51019006F0C4F9834615
:1042600005F098FE3E4A3F4BCDE9020104F008FB01
:1042700004460D46089805F016FB064622462B46D6
:1042800005F05CF9CDE90401DDE9062305F09AF8B3
:10429000804605F0ABFACAF800000BB0BDE8F08F1D
:1042A00038B504462C48046001216846FFF7BCFF7E
:1042B0002D490098086038BD08B5024626480260BE
:1042C0006846FFF756FD28490098086008BD38B5D4
:1042D00004462548046001216846FFF7F2FD1E49A7
:1042E0000098086038BD70B506460C461546FFF7C5
:1042F000BFFE0120FFF726FE3046FFF792FF002D9C
:1043000003DD2046FFF7CCFF02E02046FFF7DFFF8A
:1043100070BD10B50020154908600E4908600122E3
:1043200000210320FFF7DFFF10BD0000780100200F
:10433000680100206A0100206C0100205E0100205D
:10434000600100206201002064010020660100205D
:104350007C010020840100208C010020D048874A85
:1043600085EB51B81E051540880100208001002012
:104370002DE9F84F06460F4690469946DDF82CB0D9
:10438000012472B6F6480078202141EAC010C0B27C
:1043900040F00D022146641CF2484254C6F3072245
:1043A0002146641C42542146641C4654C7F307222C
:1043B0002146641C42542146641C4754C8F307221A
:1043C0002146641C42542146641C00F80180C9F354
:1043D00007222146641C42542146641C00F80190C7
:1043E000BBF1000F1CD0002518E05BF82500DE496A
:1043F00005F0FCFF009005F05DFF0FFA80FACAF3AC
:1044000007222046611C0CB2D6490A542046611C82
:104410000CB2D44901F800A0681C05B2032DE4DBFE
:10442000D0490C7062B6BDE8F88F2DE9F04706461A
:1044300088469146012472B6C9480078402141EA75
:10444000C010C0B240F00D022146641CC548425461
:10445000C549306805F0CAFF824605F02BFF05B25A
:10446000C5F307222146641CBE4842542146641C01
:104470004554BD49706805F0B9FF824605F01AFF42
:1044800005B2C5F307222146641CB64842542146B2
:10449000641C4554B449B06805F0A8FF824605F095
:1044A00009FF05B2C5F307222146641CAD484254FA
:1044B0002146641C4554AC49F06805F097FF8246DC
:1044C00005F0F8FE05B2C5F307222146641CA54895
:1044D00042542146641C4554C8F307222146641CFB
:1044E00042542146641C00F80180B9F1000F1AD033
:1044F000002716E059F827009B4905F077FF824610
:1045000005F0D8FE05B2C5F307222046611C0CB2A7
:1045100094490A542046611C0CB292490D54781CEF
:1045200007B2032FE6DB8F490C7062B6BDE8F08757
:104530002DE9F04F044609AD95E8E010DDE90D895D
:10454000012072B64FF00D0B8646401CDFF814A216
:104550000AF80EB0002C03DAC4F5004A0FFA8AF408
:10456000C4F3072B824600F1010E0FFA8EF0DFF83C
:10457000F4E10EF80AB0824600F1010E0FFA8EF057
:10458000DFF8E0E10EF80A40002903DAC1F5004A3D
:104590000FFA8AF1C1F3072B824600F1010E0FFAE0
:1045A0008EF0DFF8C0E10EF80AB0824600F1010E8D
:1045B0000FFA8EF0DFF8ACE10EF80A10002A03DAE9
:1045C000C2F5004A0FFA8AF2C2F3072B824600F1C5
:1045D000010E0FFA8EF0DFF88CE10EF80AB0824679
:1045E00000F1010E0FFA8EF0DFF878E10EF80A20E4
:1045F000002B03DAC3F5004A0FFA8AF3C3F3072B43
:10460000824600F1010E0FFA8EF0DFF858E10EF845
:104610000AB0824600F1010E0FFA8EF0DFF844E195
:104620000EF80A30002D03DAC5F5004A0FFA8AF5B4
:10463000C5F3072B824600F1010E0FFA8EF0DFF86A
:1046400024E10EF80AB0824600F1010E0FFA8EF056
:10465000DFF810E10EF80A50002E03DAC6F5004A22
:104660000FFA8AF6C6F3072B824600F1010E0FFA05
:104670008EF0DFF8F0E00EF80AB0824600F1010E8D
:104680000FFA8EF0DFF8DCE00EF80A60002F03DA94
:10469000C7F5004A0FFA8AF7C7F3072B824600F1E5
:1046A000010E0FFA8EF0DFF8BCE00EF80AB0824679
:1046B00000F1010E0FFA8EF0DFF8A8E00EF80A7094
:1046C000BCF1000F03DACCF5004A0FFA8AFCCCF3F8
:1046D000072B824600F1010E0FFA8EF0DFF884E01E
:1046E0000EF80AB0824600F1010E0FFA8EF0DFF8E4
:1046F00074E00EF80AC0B8F1000F03DAC8F5004AFA
:104700000FFA8AF8C8F3072B824600F1010E0FFA60
:104710008EF0DFF850E00EF80AB0824600F1010E8C
:104720000FFA8EF0DFF83CE00EF80A80C9F3072B91
:10473000824600F1010E0FFA8EF0DFF828E00EF845
:104740000AB0824600F1010E0FFA8EF0DFF814E095
:104750000EF80A90F3468BF8000062B6BDE8F08FC1
:10476000A00100202807002000401C4630B5034669
:104770000A4682488088C0F13C00904223DB72B632
:1047800000211BE05C5C7D484588801D4455801FEE
:104790004088401C3C2490FBF4F504FB1500774C4A
:1047A000608020468088401CA080204680883C286D
:1047B00002D1204600886080481CC1B29142E1DBF2
:1047C00062B6012030BD0020FCE77047020E0A707F
:1047D000020C4A70020A8A70C8707047020A0A7096
:1047E0004870704708707047F0B501460024644D6A
:1047F0002D782D1DE8B2A5250D705A254D70604D00
:104800002D78AD1C8D708D782C44032301220AE095
:104810005B4DAF5C1D465E1CF3B24F55584DAD5C11
:104820002C44551CEAB2564D2D789542F0DC1D46BD
:104830005E1CF3B24C55AA271D465E1CF3B24F55C1
:10484000F0BD30B503460A464C488088C0F13C00B4
:10485000904221DB00211BE05C5C48484588801DBC
:104860004455801F4088401C3C2490FBF4F504FB19
:104870001500424C608020468088401CA080204665
:1048800080883C2802D1204600886080481CC1B244
:104890009142E1DB012030BD0020FCE701463748B2
:1048A0000088364A5288904204D13448808808B93A
:1048B0000020704731480288801D805C08702F48B6
:1048C0000088401C3C2290FBF2F302FB13002B4AB1
:1048D000108010468088401E90800120E9E710B5C6
:1048E000012240F22771274801F001FF10BD10B5E9
:1048F000002240F22771234801F0F9FE10BD10B5E7
:104900008AB072B640F225511E4801F0D5FFC8B1F9
:1049100040F225511B4801F0F9FF1A4801F04CFF05
:104920000D280FD102A8FFF75FFF04461E2C08DAFE
:10493000214602A8FFF785FF012803D1FFF7CFFF2B
:1049400000E000BF40F227710E4801F0B5FF88B1CA
:1049500040F227710B4801F0D9FF01A8FFF79EFF35
:10496000012805D19DF80410064801F021FF01E05F
:10497000FFF7BDFF62B60AB010BD00008C07002033
:104980002807002000380140ADF51A7D0026FE4BB7
:104990000FCBCDE91123CDE90F01FB4A1032D2E94B
:1049A00000109268CDE90D020C91002009900A9048
:1049B0000B90FBF76DFC4820FBF70AFDFDF71EFB93
:1049C000FDF74EFB4FF4FA20FEF781FD4FF4E13086
:1049D000FDF77BFF0121402000F02BFEFBF74EFD91
:1049E0004FF49670FBF70FFDFCF7F4F801208DF8FB
:1049F0007400E648007810F0030F04D14FF08D40AA
:104A0000E349086019E0E148007800F0030001285C
:104A100004D14FF08C40DE4908600EE0DB4800789E
:104A200000F00300022804D14FF08B40D849086001
:104A300003E04FF08A40D6490860D64800883C28F9
:104A400006D1D248007840F01000D049087009E043
:104A5000D04800888C2805D1CC48007840F0300040
:104A6000CA490870CC480088C849097840EA012042
:104A700000B2C9490880FCF7A3F8C849086049E2B8
:104A8000C7480078022805D100221CA913A8FCF70A
:104A900061FF2AE0C2480078012804D10FA913A8B9
:104AA000FCF73EFE21E0BE480078062805D109AAA1
:104AB0001CA913A8FCF74EFF17E0B948007804289A
:104AC00005D100221CA90FA8FCF767FC0DE0B44833
:104AD0000078072805D109AA1CA90FA8FCF75DFCDE
:104AE00003E00FA913A8FCF71BFE701C86B2FCF7AD
:104AF00067F8AA490968441AA648B0F90000A9490C
:104B000091FBF0F0A0427DD8204604F0E3FE814600
:104B10000022A54B04F012FDCDE90601304605F058
:104B20001DFC814605F036FACDE90401DDE90623D6
:104B300004F004FD074604F089FE86B29848007828
:104B4000082876D2DFE800F075043AACF6F476FE79
:104B500096489749974B984ACDE90010974998484D
:104B6000FDF7F0FC974A98499848FBF738FF8A48C8
:104B7000B0F900009349B1F90010934AB2F900204E
:104B8000924BB3F90030CDE90232CDE904108748E9
:104B9000B0F900008649B1F90010CDE90010854850
:104BA000B0F900308448B0F900208448B0F9001012
:104BB0008348B0F90000FFF7BBFCD5E0159805F07D
:104BC000E9F981460022824B04F0D4FE074604F046
:104BD0000DFE0FFA80FB149805F0DCF90746002261
:104BE0007B4B04F0C7FE814604F000FE00B2089043
:104BF000139805F0CFF981460022754B04F0BAFEF8
:104C0000074600E0B8E004F0F1FD00B20790002094
:104C10006149B1F90010CDE90010BDF8700003B290
:104C20005A46DDE90701FFF7A3FB01208DF8740068
:104C30009AE095E0159805F0ADF981460022644BA5
:104C400004F098FE074604F0D1FD0FFA80FB14989B
:104C500005F0A0F9074600225D4B04F08BFE81466B
:104C600004F0C4FD00B20890139805F093F90746CC
:104C70000022574B04F07EFE814604F0B7FD00B2DF
:104C8000079009A84449B1F90010CDE90010BDF81A
:104C9000700003B25A46DDE90701FFF769FB00BF68
:104CA00042484349434B444ACDE9001043494448F4
:104CB000FDF748FC434A44494448FBF790FE0CA8E2
:104CC000FCF761FB1DA83449B1F900100CAA3D4B5B
:104CD000B3F90030CDE90432CDE906103A48B0F915
:104CE00000103A48B0F900203048B0F90000304BCD
:104CF000B3F90030CDE90030CDE902212D48B0F9FB
:104D000000302D48B0F900202C48B0F900102C4894
:104D1000B0F90000FDF787FF9DF87400012802DD5F
:104D20001DA8FDF70BFF01208DF874001CE009E0C1
:104D300010E0FFE70022BDF8700001B20FA8FFF7F6
:104D400074FB11E009AABDF8700001B20FA8FFF7CB
:104D50006CFB09E01048B0F90000FEF732F803E000
:104D600003200F49087000BF00BF0026FBF728FF93
:104D70000A490860FDF7CDF91DA8FEF72EFB054690
:104D8000FF2873D0284625E0D8A70008B5010020E9
:104D9000D4010020A4010020A6010020C8010020A9
:104DA000B401002040420F0080842E41C001002049
:104DB000BE010020BC010020BA010020B801002083
:104DC000B6010020C6010020C4010020C20100205D
:104DD00000002440E22D4AD00CDCA72848D004DC97
:104DE000A32859D0A4285ED14FE0E0280AD0E128BA
:104DF00059D10AE0E338052855D2DFE800F017144E
:104E0000252B3100FDF768FA4EE016AA17A918A85D
:104E1000FEF717FBBDF95820BDF95C10BDF9600025
:104E2000FDF7F0FC40E0FDF7BFFB3DE019AA1AA931
:104E30001BA8FEF7ECFABDF96420BDF96810BDF9B6
:104E40006C00FDF7F4FC2FE00220FEF7DCFA32499B
:104E5000088029E03148B0F90000FDF7B2FF23E0F7
:104E60000220FEF7D0FA2E4908701DE01DE01BE07D
:104E70009DF87400801EC0B28DF874001DA8FDF767
:104E80005DFE01208DF874000EE09DF87400801E18
:104E9000C0B28DF8740007E09DF87400801EC0B2A7
:104EA0008DF8740000E000BF02E001208DF874006E
:104EB000149805F06FF8074600221A4B04F058FECC
:104EC00008D3149805F066F807460022164B04F044
:104ED00015FD04D20221154800F0B1F91AE0159829
:104EE00005F058F8074600220E4B04F041FE08D3A7
:104EF000159805F04FF8074600220B4B04F0FEFC16
:104F000004D20221094800F09AF903E0022107487F
:104F100000F097F9B4E50000A4010020A6010020EC
:104F2000B401002000002E4000002EC00008014007
:104F3000704700BFFEE700BFFEE700BFFEE700BF0F
:104F4000FEE77047704770477047000031490143E2
:104F5000314A1160704770B5002100230F22C478D8
:104F60000CB32D4C246804F4E064C4F5E064210A19
:104F7000C1F10403CA40447804FA03F18478144070
:104F800021430901254C0678A155047804F01F053A
:104F90000124AC4005786D114FF0E02606EB850545
:104FA000C5F8004109E0047804F01F050124AC4075
:104FB0001B4D0678761145F8264070BD194A0A4007
:104FC0000243154B1B1F1A60704739B1124A121D5C
:104FD00012680243104B1B1D1A6006E00E4A121D98
:104FE000126882430C4B1B1D1A607047042808D1BD
:104FF0004FF0E021096941F004014FF0E022116116
:1050000007E04FF0E021096921F004014FF0E022B0
:10501000116170470000FA050CED00E000E400E0CB
:1050200080E100E080FFFF1F10B50446CA488442BB
:1050300008D10121042000F023FB0021042000F00E
:105040001FFB46E0C548844208D10121082000F03A
:1050500017FB0021082000F013FB3AE0C04884420F
:1050600008D10121102000F00BFB0021102000F0DE
:1050700007FB2EE0BB48844208D10121202000F02C
:10508000FFFA0021202000F0FBFA22E0B64884421B
:1050900008D10121402000F0F3FA0021402000F067
:1050A000EFFA16E0B148844208D10121802000F0D7
:1050B000E7FA0021802000F0E3FA0AE0AC488442DD
:1050C00007D10121801500F0DBFA0021A01500F0C6
:1050D000D7FA10BD10B50121084600F0D1FA002121
:1050E000012000F0CDFA10BD2DE9F0410246002567
:1050F0000026002000230024002791F803C00CF0B4
:105100000F0591F803C01CF0100F03D091F802C0F6
:105110004CEA050591F800C0BCF1000F31D01468CD
:1051200000202BE04FF0010C0CFA00F3B1F800C0A6
:105130000CEA03069E4220D183004FF00F0C0CFABC
:1051400003F7BC4305FA03FC4CEA040491F803C0DE
:10515000BCF1280F06D14FF0010C0CFA00FCC2F88C
:1051600014C00AE091F803C0BCF1480F05D14FF01C
:10517000010C0CFA00FCC2F810C0401C0828D1D366
:105180001460B1F800C0BCF1FF0F34DD546800209A
:105190002EE000F1080C4FF0010808FA0CF3B1F80A
:1051A00000C00CEA03069E4221D183004FF00F0C91
:1051B0000CFA03F7BC4305FA03FC4CEA040491F82B
:1051C00003C0BCF1280F05D100F1080C08FA0CF857
:1051D000C2F8148091F803C0BCF1480F07D100F168
:1051E000080C4FF0010808FA0CF8C2F81080401CB7
:1051F0000828CED35460BDE8F0814FF6FF710180DE
:10520000022181700421C17070470246002093681A
:105210000B4201D0012000E0002070470146886861
:1052200080B2704702460020D3680B4201D00120B3
:1052300000E0002070470146C86880B270470161F5
:105240007047416170470AB1016100E041617047F8
:10525000C16070474FF480320A438261816182618C
:1052600082698269704702460020424B18684FF6F7
:105270008073184040EA021008433E4B18607047A4
:105280003D49C8617047F0B50A460023002400215B
:10529000002500F00046B6F1004F02D1354EF1690D
:1052A00001E0344E7168C0F3034583B200F4401648
:1052B000B6F5401F08D121F070612E4E766826F0B9
:1052C00070662C4F7E6012E000F48016B6F5801FE9
:1052D00006D1032606FA05F4A14341F0706106E009
:1052E000460D360103FA06F6B14341F0706122B172
:1052F000460D360103FA06F6314300F00046B6F1DA
:10530000004F02D11B4EF16101E01A4E7160F0BDF9
:1053100030B500228B071C0F0F2303FA04F2154B44
:1053200008338C1053F824309343124C08348D10FA
:1053300044F8253023468C1053F824308C07240F72
:1053400000FA04F423430B4C08348D1044F8253044
:1053500030BD0A490860704700080140000C014058
:10536000001001400014014000180140001C0140E1
:10537000002001400000014000002042DC002042EB
:10538000DB48006840F00100D949086008464068E1
:10539000D8490840D649486008460068D6490840C0
:1053A000D34908600846006820F480200860084659
:1053B000406820F4FE0048604FF41F00886070478A
:1053C000CB49096821F48031C94A11601146096846
:1053D00021F480211160B0F5803F03D0B0F5802F1B
:1053E0000ED106E0C249096841F48031C04A11601B
:1053F00007E0BF49096841F4A021BD4A116000E0FF
:1054000000BF00BF704710B50146002200230020F6
:105410004A11012A02D1B64C236806E0022A02D1C1
:10542000B34C236A01E0B24C636A01F01F0201240D
:1054300094401C4201D0012000E0002010BD70B556
:1054400000240025002600BF3120FFF7DCFF0646C0
:10545000641CB4F5A06F01D0002EF5D03120FFF709
:10546000D2FF08B1012500E00025284670BD0146A5
:1054700000209F4A106820F0F80040EAC100106048
:1054800070479E490860704702460020984B586854
:1054900020F47C1042EA01031843954B5860704792
:1054A00096490866704701460020914A506820F0EE
:1054B00003000843506070478D48406800F00C00BE
:1054C0007047014600208A4A506820F0F0000843E7
:1054D0005060704701460020854A506820F4E06023
:1054E00008435060704701460020814A506820F40C
:1054F000605040EAC1005060704729B17C4A527A3E
:1055000002437B4B5A7204E0794A527A8243784BC9
:105510005A7270477A490860704701460020744A01
:10552000506820F440400843506070470021754A9D
:1055300011706F4A82F82010012802D0042808D187
:1055400003E001216F4A117004E005216D4A1170DA
:1055500000E000BF00BF70476B49086070476449B6
:10556000096A0143624A1162704767494439086019
:10557000704730B500210022002400235C4D6D6887
:1055800005F00C0121B1042905D0082923D105E03B
:105590005E4D056022E05D4D05601FE0544D6D6875
:1055A00005F47012524D6D6805F48034022505EB48
:1055B00092421CB9564D554305600BE04C4D6D6849
:1055C00015F4003F03D0524D5543056002E04F4DA6
:1055D0005543056002E04D4D056000BF00BF444DDE
:1055E0006D6805F0F00109094A4D6B5C0568DD4006
:1055F00045603F4D6D6805F4E061090A454D6B5CFF
:105600004568DD4085603A4D6D6805F46051C90A12
:10561000404D6B5C4568DD40C560354D6D6805F4F7
:105620004041890B3C4D6B5CC568B5FBF3F50561EA
:1056300030BD29B12E4A526902432D4B5A6104E014
:105640002B4A526982432A4B5A61704729B1284A32
:1056500092690243264B9A6104E0254A926982438B
:10566000234B9A61704729B1214AD2690243204BEA
:10567000DA6104E01E4AD26982431D4BDA61704749
:1056800029B11B4AD2680243194BDA6004E0184A78
:10569000D2688243164BDA60704729B1144A126906
:1056A0000243134B1A6104E0114A12698243104B02
:1056B0001A61704714494039086070470F49C8643F
:1056C00070470B49C87170470948406A40F08070C4
:1056D00007494862704701460020054A92680A421D
:1056E00001D0012000E00020704701498872704716
:1056F000001002400000FFF8FFFFF6FE00004242EB
:10570000D800424220100240800442420024F400AB
:1057100000127A00D8010020E801002010B50446EC
:10572000FE48844208D10121C014FFF7A9FF0021DF
:10573000E014FFF7A5FFC4E0B4F1804F08D10121C8
:105740000846FFF7AAFF00210120FFF7A6FFB8E0F7
:10575000F348844208D101210220FFF79EFF002177
:105760000220FFF79AFFACE0EE48844208D1012105
:105770000420FFF792FF00210420FFF78EFFA0E036
:10578000E948844208D101210820FFF786FF002163
:105790000820FFF782FF94E0E448844208D1012109
:1057A0001020FFF77AFF00211020FFF776FF88E036
:1057B000DF48844208D101212020FFF76EFF00213D
:1057C0002020FFF76AFF7CE0DA48844208D10121FB
:1057D0004014FFF755FF00216014FFF751FF70E000
:1057E000D548844209D10121C804FFF749FF0021AF
:1057F0004FF40020FFF744FF63E0D048844209D112
:1058000001210805FFF73CFF00214FF48010FFF74E
:1058100037FF56E0CA48844209D101214805FFF705
:105820002FFF00214FF40010FFF72AFF49E0C54881
:10583000844208D101214020FFF72FFF00214020A2
:10584000FFF72BFF3DE0C048844208D101218020B2
:10585000FFF723FF00218020FFF71FFF31E0BB4847
:10586000844208D101218015FFF717FF0021A01500
:10587000FFF713FF25E0B648844209D1012108044F
:10588000FFF7FEFE00214FF48030FFF7F9FE18E02D
:10589000B048844209D101214804FFF7F1FE0021FC
:1058A0004FF40030FFF7ECFE0BE0AB48844208D128
:1058B00001218804FFF7E4FE00214FF48020FFF768
:1058C000DFFE10BD00220288944B98420ED0994B07
:1058D00098420BD0B0F1804F08D0914B984205D040
:1058E000904B984202D0904B984204D14FF68F7360
:1058F0001A404B881A438D4B984207D08C4B9842E4
:1059000004D04FF6FF431A40CB881A4302808B889D
:1059100083850B880385814B98420BD0854B984239
:1059200008D08B4B984205D08A4B984202D08A4BC4
:10593000984201D10B7A038601238382704770B5A8
:10594000002400220023058C4FF6FE7635400584A6
:10595000028C8388048B4FF68F752C40B51E2C402B
:105960000D882C43751E2A400D892A434D882A43F1
:105970006A4DA8420BD06F4DA84208D0744DA84282
:1059800005D0744DA84202D0734DA84213D14FF6F2
:10599000F7752A404D892A434FF6FB752A408D88BA
:1059A0002A434FF6FF652B404FF6FF552B408D895C
:1059B0002B43CD892B4383800483CD888586028445
:1059C00070BD70B5002400220023058C4FF6EF76E1
:1059D00035400584028C8388048B48F6FF752C4083
:1059E0004FF6FF452C400D884FF6FF7606EA052559
:1059F0002C434FF6DF752A400D8906EA05152A4328
:105A00004D8806EA05152A43444DA84202D0494D67
:105A1000A8421DD14FF67F752A404D894FF6FF767B
:105A200006EA05152A434FF6BF752A408D8806EA17
:105A300005152A434FF6FF352B404FF2FF752B40DB
:105A40008D8906EA85052B43CD8906EA85052B431A
:105A500083800483CD880587028470BD70B50024DF
:105A600000220023058C4FF6FF6635400584028C2A
:105A70008388848B4FF68F752C404FF6FC752C4035
:105A80000D882C434FF6FF552A400D894FF6FF76BF
:105A900006EA05252A434D8806EA05252A431F4DB7
:105AA000A84202D0234DA8421DD14FF2FF752A40D3
:105AB0004D894FF6FF7606EA05252A434FF6FF3556
:105AC0002A408D8806EA05252A434EF6FF752B40AD
:105AD0004DF6FF752B408D8906EA05152B43CD89C0
