:020000040800F2
:10000000206D0020E90D0008F10D0008F30D000837
:10001000F50D0008F70D0008F90D000800000000BC
:10002000000000000000000000000000690100085E
:10003000FD0D000800000000F10100084102000869
:10004000030E0008030E0008030E0008030E00084C
:10005000030E0008030E0008030E0008030E00083C
:10006000030E0008030E0008030E0008030E00082C
:10007000030E0008030E00082F0D0008030E0008F1
:10008000030E0008030E0008030E0008030E00080C
:10009000030E0008030E0008030E0008030E0008FC
:1000A000030E0008030E0008030E0008030E0008EC
:1000B0005B0B0008030E0008030E0008030E000887
:1000C000030E0008030E0008030E0008030E0008CC
:1000D000030E0008950B00080D0C00089F0C00088B
:1000E000030E0008030E0008030E0008DFF80CD012
:1000F00003F072FA00480047450B0008206D00200D
:1001000080F309887047EFF309807047684680F3F1
:10011000098804480078C00714BF0220032080F338
:100120001488704730410008DFF818C0EFF30583EA
:100130001B0618BF6047EFF31483DB0708BF604757
:1001400000DF704757370008DFF818C0EFF305836A
:100150001B0618BF6047EFF31483DB0708BF604737
:1001600000DF70473D390008EFF30980816911F81D
:10017000021C39BB90E80F10E047EFF3098C194BD4
:1001800093E80600914218D059B10CB44FF0010326
:1001900081F821302CE9F00FC1F824C003F0B0FD44
:1001A0000CBC1A60D2F824C0BCE8F00F92F82130E1
:1001B0008CF309881BB192F82000CCF800006FF096
:1001C000020E704710B5084A1268914209D8074CD0
:1001D00054F8214090E80F10A047EFF3098C8CE809
:1001E0000F0010BD3C0000203C3600083C360008E3
:1001F00003F07EFC114B93E8060091421BD00CB437
:100200004FF0000381F82130EFF3098C2CE9F00F57
:10021000C1F824C003F074FD0CBC1A60D2F824C0ED
:10022000BCE8F00F8CF3098892F821301BB192F8EA
:100230002030CCF800306FF0020E70473C000020F8
:1002400003F030FED6E7000003F084FA03F02AFE44
:10025000D0E70000C2684A40C260704710B5022172
:10026000FD4801F074F80421FC4801F070F84FF4E7
:100270000051FA4801F06BF84FF48051F74801F053
:1002800068F810BD10B50221F34801F062F80421AE
:10029000F24801F05EF84FF40051F04801F059F8CF
:1002A00010BD00B591B00121084601F04AFA0121C4
:1002B00040F2052001F052FA0120ADF800000320C1
:1002C0008DF8020000208DF803006946E24800F036
:1002D00093FFE34800F008FEE2480190E2480290F4
:1002E00000200390012004900020059006904FF418
:1002F00080700790800008902020099000020A90EA
:1003000000200B9001A9D64800F090FE0121D448AE
:1003100000F0B7FE00200C9001208DF834008DF81D
:1003200035004FF460200E9000200F9001208DF8D2
:1003300040000CA9CB484C3802F0B1FB0723012246
:100340000C21C8484C3802F042FC0121C5484C3809
:1003500002F0DCFB0121C3484C3802F0CCFBC14861
:100360004C3802F0EAFB00BFBE484C3802F0EAFB12
:100370000028F9D1BB484C3802F0EEFB00BFB94869
:100380004C3802F0EEFB0028F9D10121B5484C3879
:1003900002F0F1FB11B000BD10B50121402001F0C9
:1003A000D0F90121084601F0CCF90121022001F029
:1003B000C8F90121084601F0D1F90121084601F0F0
:1003C000DAF90121880301F0C9F90121480401F09B
:1003D000D2F90121880401F0CEF90121C80401F00D
:1003E000CAF90121080501F0C6F90121480201F00E
:1003F000B5F910BD08B51C208DF8000000208DF85F
:1004000001008DF8020001208DF80300684600F01D
:1004100002FD4FF4806000F0F9FC25208DF800000B
:1004200002208DF8010001208DF802008DF80300F4
:10043000684600F0F0FC4FF4806000F0E7FC2620F6
:100440008DF8000003208DF8010001208DF80200D6
:100450008DF80300684600F0DEFC4FF4806000F089
:10046000D5FC27208DF8000004208DF80100012024
:100470008DF802008DF80300684600F0CCFC0E20D9
:100480008DF8000003208DF8010002208DF8020095
:1004900001208DF80300684600F0BDFC08BD00B5E2
:1004A0008BB000216E483C3000F0EBFD6C483C30D6
:1004B00000F01AFD6D4800906D48019010200290E8
:1004C0004FF47A7003900020049080200590002063
:1004D0000690079008904FF40050099000200A9071
:1004E00069465F483C3000F0A1FD012202215C48D2
:1004F0003C3000F0D2FD012159483C3000F0C1FDF4
:1005000000215748503000F0BCFD5548503000F0F5
:10051000EBFC5648009057480190002002901E20A6
:100520000390002004908020059000200690079002
:1005300008904FF44050099000200A9069464848BE
:10054000503000F073FD01214548503000F099FD16
:100550004348643000F0C8FC474800904748019089
:10056000002002901E20039000200490802005901F
:1005700000200690079008904FF44050099000200A
:100580000A9069463648643000F050FD0121344835
:10059000643000F076FD3248283000F0A5FC384881
:1005A000009038480190002002901E200390002007
:1005B00004908020059000200690079008904FF44A
:1005C0004050099000200A9069462548283000F0E4
:1005D0002DFD01212248283000F053FD0BB000BD55
:1005E0001FB54FF4E13000900020ADF80400ADF8E5
:1005F0000600ADF80800ADF80C000C20ADF80A00BC
:1006000069461A48001F02F062F8012240F2266192
:100610001648001F02F0F3F8012240F2255113485A
:10062000001F02F0ECF8012240F224410F48001FA5
:1006300002F0E5F8012280210C48001F02F004F9C5
:10064000012240210948001F02F0FEF8012107485D
:10065000001F02F0C8F81FBD00080140000C014057
:10066000080002404C2401400400002004380140EE
:10067000900100206400002004440040820000201B
:1006800004480040A00000201FB54FF4FA2000905D
:100690000020ADF80400ADF80600ADF80800ADF894
:1006A0000C000C20ADF80A006946F84802F00FF87B
:1006B000002240F22661F54802F0A1F8002240F243
:1006C0002551F24802F09BF8012240F22441EF4804
:1006D00002F095F81FBD1FB50020ADF80400ADF87D
:1006E0000600ADF80800ADF80C000C20ADF80A00CB
:1006F0004FF4FA2000906946E54801F0E8FF002237
:1007000040F22661E24802F07AF8002240F22551D8
:10071000DF4802F074F8012240F22441DC4802F084
:100720006EF81FBD30B503460A46DA48808842F2AB
:100730001074201A904227DB72B600211FE05C5C27
:10074000D4484588801D4455801F4088401C42F293
:10075000107490FBF4F504FB1500CE4C608020462D
:100760008088401CA08020468088A0F51C54103C46
:1007700003D1C8480088C74C6080481CC1B2914270
:10078000DDDB62B6012030BD0020FCE70146C14838
:100790000088C04A5288904204D1BE48808808B977
:1007A0000020704772B6BB480288801D805C0870CC
:1007B000B8480088401C42F2107290FBF2F302FB32
:1007C0001300B44A108010468088401E908062B6A4
:1007D0000120E6E730B503460A46AF48808842F27A
:1007E0001074201A904227DB72B600211FE05C5C77
:1007F000A9484588801D4455801F4088401C42F20E
:10080000107490FBF4F504FB1500A34C60802046A7
:100810008088401CA08020468088A0F51C54103C95
:1008200003D19D4800889C4C6080481CC1B2914215
:10083000DDDB62B6012030BD0020FCE701469648B2
:100840000088954A5288904204D19348808808B91C
:100850000020704772B68F4802888F48801D805CE8
:1008600008708D480088401C42F2107290FBF2F331
:1008700002FB1300884A108010468088401E90803A
:1008800062B60120E5E710B58448006800BB00248B
:1008900007E083490819FFF779FF00B904E0601CFD
:1008A000C4B2B4F57A7FF4DB00BF002C0DDD72B664
:1008B00021467C4800F0FAFB01217A4800F0E1FB78
:1008C00001207649086062B602E0002073490860A2
:1008D00010BD70B504460D462946204601F0F0FFD4
:1008E000002202210846DFF8C0C100DF012808D03D
:1008F0006E488078801CC1B26C48FFF713FFFFF789
:10090000C2FF70BD70B504460D462946204601F071
:10091000D7FF002202210846DFF88CC100DF012842
:1009200008D063488078801CC1B26148FFF7FAFEA6
:10093000FFF7A9FF70BDDFF87CC100DF5E490860EA
:100940002BE000224FF6FF710120DFF85CC100DFD1
:1009500001214E48FFF7BDFF02214C48FFF7B9FFC8
:1009600003214A48FFF7B5FF04214848FFF7B1FFCC
:1009700005214648FFF7ADFF06214448FFF7A9FFD0
:1009800007214248FFF7A5FF08214048FFF7A1FFD4
:1009900009213E48FFF79DFF00BFD2E7DFF814C1F1
:1009A00000DF464908602BE000224FF6FF7101206E
:1009B000DFF8F4C000DF0A213548FFF7A3FF0B2161
:1009C0003348FFF79FFF0C213148FFF79BFF0D21B4
:1009D0002F48FFF797FF0E212D48FFF793FF0F21B8
:1009E0002B48FFF78FFF10212948FFF78BFF1121BC
:1009F0002748FFF787FF12212548FFF783FF00BF35
:100A0000D2E71CB54FF0000B3FE04FF4FA70DFF86F
:100A1000B0C000DF2B48008802F000FD01904FF0CD
:100A20008B41019802F048FC009002F0FCFC064665
:100A30004FF06632244B02F07FFC044600224FF058
:100A4000804302F079FC804602F014FD82460BF1EF
:100A5000010000F0FF0BBBF1050F06DD4FF0000BAE
:100A60004FF480511948FFF7F5FB504602F0DBFCCC
:100A700004460022164B02F0E9FC06D2FFF702FC06
:100A80004FF480511148FFF7E5FBBEE700440040FA
:100A9000004800406009002076300020000000205F
:100AA0009001002044000240FD3800081801002099
:100AB00036010020C1400008080000200C00002082
:100AC000A93800080400002066660A40000C0140B6
:100AD00000000C4072B6FFF75FFC02F05BFB02F017
:100AE00035FBFFF787FCFFF7DAFCFFF779FDFFF72F
:100AF000CBFDFFF7F0FDFFF7D4FBFFF7AFFB62B6CE
:100B0000DFF888C200DF00231A465A21AFF2D9105D
:100B1000DFF87CC200DF00231A465F21AFF28310AA
:100B2000DFF86CC200DF00231A466421AFF22D10FB
:100B3000DFF85CC200DFDFF85CC200DF0020DFF816
:100B400058C200DFFFF7E2FA00221146AFF27B0045
:100B5000DFF848C200DF00BFFEE710B501218807BB
:100B600001F05DFDA8B10121880701F069FD8C4805
:100B70000168012002F0C6FD8A480168012002F0E8
:100B8000C1FD0421884800F0E2FB0421864800F002
:100B9000E0FB10BD70B50025002440F226618348BB
:100BA00001F012FF20B140F22661804801F036FFCB
:100BB00040F224417D4801F007FF28B37B480588B7
:100BC000001D058800217A4800F05BFA784800F0A3
:100BD0006FFAC0F11E05002405E07648005D7649F5
:100BE0000855601C84B2AC42F7D3681EC1B272488B
:100BF000FFF798FDFFF747FE1E216D4800F056FAFB
:100C000001216B4800F03DFA00BF70BD70B50025B2
:100C1000002440F22441694801F0D6FE00283CD06F
:100C200066480588001D058800216148143000F0E1
:100C300028FA5F48143000F03BFAC0F11E0500BFEF
:100C400005E05F48005D5F490855601C84B2AC4216
:100C5000F7D35C480078A52814D15A4840785A2820
:100C600010D158488178A01E81420BD1601E554991
:100C7000085CAA2806D100BF49480168022002F09A
:100C800041FD00E000BF1E214948143000F00EFA7B
:100C900001214748143000F0F4F900BF70BD70B571
:100CA0000025002440F22441474801F08DFE002831
:100CB0003BD045480588001D058800213C48283860
:100CC00000F0DFF93A48283800F0F2F9C0F11E05CB
:100CD00000BF05E03D48005D3D490855601C84B2F9
:100CE000AC42F7D33A480078A52813D13848407869
:100CF0005A280FD136488178A01E81420AD1601E41
:100D00003349085CAA2805D126480168022002F070
:100D1000F9FC00E000BF1E212548283800F0C6F984
:100D200001212348283800F0ACF900BF70BD10B590
:100D30004FF4005000F0D3F900211D48143800F0A2
:100D4000A0F9002407E023490819FFF71FFD00B9A7
:100D500004E0601C84B2B4F57A7FF4DB00BF002CA1
:100D60000FDD72B621461248143800F09FF90121B8
:100D70000F48143800F085F901201749086062B661
:100D800002E000201449086010BD00007140000816
:100D9000213F0008D1400008B53F00084D3D000844
:100DA000080000200C00002000080140003801402D
:100DB0005800024064000020FA0000200044004077
:100DC000820000201801002000480040A000002000
:100DD00036010020900100200000002000BFFEE747
:100DE000704700BFFEE700000648804706480047FE
:100DF000FEE7FEE7FEE7FEE7FEE7FEE7FEE7FEE7CB
:100E0000FEE7FEE7552F0008ED00000831490143D9
:100E1000314A1160704770B5002100230F22C47859
:100E20000CB32D4C246804F4E064C4F5E064210A9A
:100E3000C1F10403CA40447804FA03F184781440F1
:100E400021430901254C0678A155047804F01F05BB
:100E50000124AC4005786D114FF0E02606EB8505C6
:100E6000C5F8004109E0047804F01F050124AC40F6
:100E70001B4D0678761145F8264070BD194A0A4088
:100E80000243154B1B1F1A60704739B1124A121DDD
:100E900012680243104B1B1D1A6006E00E4A121D19
:100EA000126882430C4B1B1D1A607047042808D13E
:100EB0004FF0E021096941F004014FF0E022116197
:100EC00007E04FF0E021096921F004014FF0E02232
:100ED000116170470000FA050CED00E000E400E04D
:100EE00080E100E080FFFF1F01684FF6FE721140B5
:100EF00001600021016041608160C1608C498842CD
:100F000008D18B490839496841F00F01884A083AED
:100F100051608AE086491431884208D184490839F1
:100F2000496841F0F001824A083A51607DE0804909
:100F30002831884208D17E490839496841F47061F6
:100F40007B4A083A516070E079493C31884208D1C7
:100F500077490839496841F47041754A083A516047
:100F600063E073495031884208D1714908394968B2
:100F700041F470216E4A083A516056E06C49643180
:100F8000884208D16A490839496841F47001684AC1
:100F9000083A516049E066497831884208D164498D
:100FA0000839496841F07061614A083A51603CE093
:100FB0006049884206D1011F096841F00F01021FF4
:100FC000116032E05B491431884208D15949091F48
:100FD000096841F0F001574A121F116025E0554998
:100FE0002831884208D15349091F096841F47061CA
:100FF000504A121F116018E04E493C31884208D116
:101000004C49091F096841F470414A4A121F116096
:101010000BE048495031884207D14649091F096809
:1010200041F47021434A121F1160704710B500222D
:10103000026847F6F0739A430C6A8B6823430C6985
:1010400023434C6923438C692343CC6923434C6A73
:1010500023438C6A23431A430260CB6843600B68C6
:1010600083604B68C36010BD0021016041608160F6
:10107000C160016141618161C1610162416281625E
:10108000704721B1026842F00102026004E0026888
:101090004FF6FE731A40026070471AB103680B43A3
:1010A000036002E003688B43036070474160704750
:1010B0000146486880B2704701460020002211F0C6
:1010C000805F03D01B4B083B1A6802E0184B083BBB
:1010D0001A680A4201D0012000E00020704710F099
:1010E000805F03D01349091F086002E010490839E6
:1010F0004860704701460020002211F0805F03D055
:101100000C4B083B1A6802E0094B083B1A680A427C
:1011100001D0012000E00020704710F0805F03D074
:101120000449091F086002E0014908394860704716
:10113000080002400804024010B50446CA48844230
:1011400008D10121042000F023FB0021042000F03D
:101150001FFB46E0C548844208D10121082000F069
:1011600017FB0021082000F013FB3AE0C04884423E
:1011700008D10121102000F00BFB0021102000F00D
:1011800007FB2EE0BB48844208D10121202000F05B
:10119000FFFA0021202000F0FBFA22E0B64884424A
:1011A00008D10121402000F0F3FA0021402000F096
:1011B000EFFA16E0B148844208D10121802000F006
:1011C000E7FA0021802000F0E3FA0AE0AC4884420C
:1011D00007D10121801500F0DBFA0021A01500F0F5
:1011E000D7FA10BD10B50121084600F0D1FA002150
:1011F000012000F0CDFA10BD2DE9F0410246002596
:101200000026002000230024002791F803C00CF0E2
:101210000F0591F803C01CF0100F03D091F802C025
:101220004CEA050591F800C0BCF1000F31D01468FC
:1012300000202BE04FF0010C0CFA00F3B1F800C0D5
:101240000CEA03069E4220D183004FF00F0C0CFAEB
:1012500003F7BC4305FA03FC4CEA040491F803C00D
:10126000BCF1280F06D14FF0010C0CFA00FCC2F8BB
:1012700014C00AE091F803C0BCF1480F05D14FF04B
:10128000010C0CFA00FCC2F810C0401C0828D1D395
:101290001460B1F800C0BCF1FF0F34DD54680020C9
:1012A0002EE000F1080C4FF0010808FA0CF3B1F839
:1012B00000C00CEA03069E4221D183004FF00F0CC0
:1012C0000CFA03F7BC4305FA03FC4CEA040491F85A
:1012D00003C0BCF1280F05D100F1080C08FA0CF886
:1012E000C2F8148091F803C0BCF1480F07D100F197
:1012F000080C4FF0010808FA0CF8C2F81080401CE6
:101300000828CED35460BDE8F0814FF6FF7101800C
:10131000022181700421C170704702460020936849
:101320000B4201D0012000E0002070470146886890
:1013300080B2704702460020D3680B4201D00120E2
:1013400000E0002070470146C86880B27047016124
:101350007047416170470AB1016100E04161704727
:10136000C16070474FF480320A43826181618261BB
:1013700082698269704702460020424B18684FF626
:101380008073184040EA021008433E4B18607047D3
:101390003D49C8617047F0B50A460023002400218A
:1013A000002500F00046B6F1004F02D1354EF1693C
:1013B00001E0344E7168C0F3034583B200F4401677
:1013C000B6F5401F08D121F070612E4E766826F0E8
:1013D00070662C4F7E6012E000F48016B6F5801F18
:1013E00006D1032606FA05F4A14341F0706106E038
:1013F000460D360103FA06F6B14341F0706122B1A1
:10140000460D360103FA06F6314300F00046B6F108
:10141000004F02D11B4EF16101E01A4E7160F0BD28
:1014200030B500228B071C0F0F2303FA04F2154B73
:1014300008338C1053F824309343124C08348D1029
:1014400044F8253023468C1053F824308C07240FA1
:1014500000FA04F423430B4C08348D1044F8253073
:1014600030BD0A490860704700080140000C014087
:10147000001001400014014000180140001C014010
:10148000002001400000014000002042DC0020421A
:10149000DB48006840F00100D94908600846406810
:1014A000D8490840D649486008460068D6490840EF
:1014B000D34908600846006820F480200860084688
:1014C000406820F4FE0048604FF41F0088607047B9
:1014D000CB49096821F48031C94A11601146096875
:1014E00021F480211160B0F5803F03D0B0F5802F4A
:1014F0000ED106E0C249096841F48031C04A11604A
:1015000007E0BF49096841F4A021BD4A116000E02D
:1015100000BF00BF704710B5014600220023002025
:101520004A11012A02D1B64C236806E0022A02D1F0
:10153000B34C236A01E0B24C636A01F01F0201243C
:1015400094401C4201D0012000E0002010BD70B585
:1015500000240025002600BF3120FFF7DCFF0646EF
:10156000641CB4F5A06F01D0002EF5D03120FFF738
:10157000D2FF08B1012500E00025284670BD0146D4
:1015800000209F4A106820F0F80040EAC100106077
:1015900070479E490860704702460020984B586883
:1015A00020F47C1042EA01031843954B58607047C1
:1015B00096490866704701460020914A506820F01D
:1015C00003000843506070478D48406800F00C00ED
:1015D0007047014600208A4A506820F0F000084316
:1015E0005060704701460020854A506820F4E06052
:1015F00008435060704701460020814A506820F43B
:10160000605040EAC1005060704729B17C4A527A6C
:1016100002437B4B5A7204E0794A527A8243784BF8
:101620005A7270477A490860704701460020744A30
:10163000506820F440400843506070470021754ACC
:1016400011706F4A82F82010012802D0042808D1B6
:1016500003E001216F4A117004E005216D4A117009
:1016600000E000BF00BF70476B49086070476449E5
:10167000096A0143624A1162704767494439086048
:10168000704730B500210022002400235C4D6D68B6
:1016900005F00C0121B1042905D0082923D105E06A
:1016A0005E4D056022E05D4D05601FE0544D6D68A4
:1016B00005F47012524D6D6805F48034022505EB77
:1016C00092421CB9564D554305600BE04C4D6D6878
:1016D00015F4003F03D0524D5543056002E04F4DD5
:1016E0005543056002E04D4D056000BF00BF444D0D
:1016F0006D6805F0F00109094A4D6B5C0568DD4035
:1017000045603F4D6D6805F4E061090A454D6B5C2D
:101710004568DD4085603A4D6D6805F46051C90A41
:10172000404D6B5C4568DD40C560354D6D6805F426
:101730004041890B3C4D6B5CC568B5FBF3F5056119
:1017400030BD29B12E4A526902432D4B5A6104E043
:101750002B4A526982432A4B5A61704729B1284A61
:1017600092690243264B9A6104E0254A92698243BA
:10177000234B9A61704729B1214AD2690243204B19
:10178000DA6104E01E4AD26982431D4BDA61704778
:1017900029B11B4AD2680243194BDA6004E0184AA7
:1017A000D2688243164BDA60704729B1144A126935
:1017B0000243134B1A6104E0114A12698243104B31
:1017C0001A61704714494039086070470F49C8646E
:1017D00070470B49C87170470948406A40F08070F3
:1017E00007494862704701460020054A92680A424C
:1017F00001D0012000E00020704701498872704745
:10180000001002400000FFF8FFFFF6FE0000424219
:10181000D8004242201002408004424200127A0066
:1018200000093D00140000202400002010B50446EB
:10183000FE48844208D10121C014FFF7A9FF00210E
:10184000E014FFF7A5FFC4E0B4F1804F08D10121F7
:101850000846FFF7AAFF00210120FFF7A6FFB8E026
:10186000F348844208D101210220FFF79EFF0021A6
:101870000220FFF79AFFACE0EE48844208D1012134
:101880000420FFF792FF00210420FFF78EFFA0E065
:10189000E948844208D101210820FFF786FF002192
:1018A0000820FFF782FF94E0E448844208D1012138
:1018B0001020FFF77AFF00211020FFF776FF88E065
:1018C000DF48844208D101212020FFF76EFF00216C
:1018D0002020FFF76AFF7CE0DA48844208D101212A
:1018E0004014FFF755FF00216014FFF751FF70E02F
:1018F000D548844209D10121C804FFF749FF0021DE
:101900004FF40020FFF744FF63E0D048844209D140
:1019100001210805FFF73CFF00214FF48010FFF77D
:1019200037FF56E0CA48844209D101214805FFF734
:101930002FFF00214FF40010FFF72AFF49E0C548B0
:10194000844208D101214020FFF72FFF00214020D1
:10195000FFF72BFF3DE0C048844208D101218020E1
:10196000FFF723FF00218020FFF71FFF31E0BB4876
:10197000844208D101218015FFF717FF0021A0152F
:10198000FFF713FF25E0B648844209D1012108047E
:10199000FFF7FEFE00214FF48030FFF7F9FE18E05C
:1019A000B048844209D101214804FFF7F1FE00212B
:1019B0004FF40030FFF7ECFE0BE0AB48844208D157
:1019C00001218804FFF7E4FE00214FF48020FFF797
:1019D000DFFE10BD00220288944B98420ED0994B36
:1019E00098420BD0B0F1804F08D0914B984205D06F
:1019F000904B984202D0904B984204D14FF68F738F
:101A00001A404B881A438D4B984207D08C4B984212
:101A100004D04FF6FF431A40CB881A4302808B88CC
:101A200083850B880385814B98420BD0854B984268
:101A300008D08B4B984205D08A4B984202D08A4BF3
:101A4000984201D10B7A038601238382704770B5D7
:101A5000002400220023058C4FF6FE7635400584D5
:101A6000028C8388048B4FF68F752C40B51E2C405A
:101A70000D882C43751E2A400D892A434D882A4320
:101A80006A4DA8420BD06F4DA84208D0744DA842B1
:101A900005D0744DA84202D0734DA84213D14FF621
:101AA000F7752A404D892A434FF6FB752A408D88E9
:101AB0002A434FF6FF652B404FF6FF552B408D898B
:101AC0002B43CD892B4383800483CD888586028474
:101AD00070BD70B5002400220023058C4FF6EF7610
:101AE00035400584028C8388048B48F6FF752C40B2
:101AF0004FF6FF452C400D884FF6FF7606EA052588
:101B00002C434FF6DF752A400D8906EA05152A4356
:101B10004D8806EA05152A43444DA84202D0494D96
:101B2000A8421DD14FF67F752A404D894FF6FF76AA
:101B300006EA05152A434FF6BF752A408D8806EA46
:101B400005152A434FF6FF352B404FF2FF752B400A
:101B50008D8906EA85052B43CD8906EA85052B4349
:101B600083800483CD880587028470BD70B500240E
:101B700000220023058C4FF6FF6635400584028C59
:101B80008388848B4FF68F752C404FF6FC752C4064
:101B90000D882C434FF6FF552A400D894FF6FF76EE
:101BA00006EA05252A434D8806EA05252A431F4DE6
:101BB000A84202D0234DA8421DD14FF2FF752A4002
:101BC0004D894FF6FF7606EA05252A434FF6FF3585
:101BD0002A408D8806EA05252A434EF6FF752B40DC
:101BE0004DF6FF752B408D8906EA05152B43CD89EF
:101BF00006EA05152B4383808483CD88858702847C
:101C000070BD70B5002200230024058C4EF6FF76CF
:101C100035400584038C8488828B48F6FF752A4002
:101C20004FF6FF452A400D8820E00000002C0140BF
:101C30000004004000080040000C0040001000407C
:101C40000014004000340140004C014000500140AD
:101C50000054014000180040001C004000200040DB
:101C60000040014000440140004801404FF6FF762B
:101C700006EA05252A434DF6FF752B400D8906EA35
:101C800005352B434D8806EA05352B43FA4DA8420E
:101C900002D0FA4DA84208D14BF6FF752C408D8931
:101CA0004FF6FF7606EA85152C4384808283CD8823
:101CB000A0F84050038470BD828B4FF2FF331A406E
:101CC0008283828B4FF6FF7303EA01231A438283D8
:101CD0007047F0B50C461546002200210026078CFF
:101CE0004EF6FF7C07EA0C070784828B018C4FF6C7
:101CF000FF7707EA043640F6FF473A404FF6FF7792
:101D000007EA05273A434FF6FF7707EA03373A43D6
:101D1000D94FB8420ED0D94FB8420BD0B0F1804F56
:101D200008D0D74FB84205D0D64FB84202D0D64FD0
:101D3000B84206D14DF6FF77394046F48057394313
:101D400005E047F6FF57394044F480573943828312
:101D50000184F0BD828B4FF6F3731A408283828B2D
:101D60000A4382837047F0B50C46154600220021D5
:101D70000026078C4FF6FF6C07EA0C070784828B5E
:101D8000018C4FF6FF7707EA04264FF60C773A40AE
:101D90004FF6FF7707EA03172F433A43B64FB8428F
:101DA0000ED0B64FB8420BD0B0F1804F08D0B44F30
:101DB000B84205D0B34FB84202D0B34FB84206D1B3
:101DC0004FF6FF57394046F48077394305E04FF22C
:101DD000FF57394044F48077394382830184F0BD52
:101DE000028B4FF2FF331A400283028B4FF6FF73D0
:101DF00003EA01231A4302837047F0B50C461546E7
:101E0000002200210026078C4FF6EF7C07EA0C0722
:101E10000784028B018C4FF6FF7707EA041640F621
:101E2000FF473A404FF6FF7707EA03373A434FF64A
:101E3000FF7707EA05273A438F4FB8420ED08F4FFE
:101E4000B8420BD0B0F1804F08D08D4FB84205D0CA
:101E50008C4FB84202D08C4FB84206D14FF6DF7794
:101E6000394046F01007394305E04FF65F773940B7
:101E700044F01007394302830184F0BD028B4FF612
:101E8000F3731A400283028B0A4302837047F0B552
:101E90000C46154600220021068C4FF6FE773E4088
:101EA0000684028B018C4FF60C7632407E1C06EACB
:101EB00003162E433243704EB0420ED06F4EB042E6
:101EC0000BD0B0F1804F08D06D4EB04205D06D4EB2
:101ED000B04202D06C4EB04206D14FF6FD76314092
:101EE00044F00106314305E04FF6F576314044F009
:101EF0000106314302830184F0BD70B505460C46EE
:101F00005D4885420ED05D4885420BD0B5F1804FCB
:101F100008D05B48854205D05A48854202D05A48CD
:101F2000854200D100E000BF208850B92389A288F3
:101F300061882846FFF7ABFFE1882846FFF79EFF40
:101F400025E0208804280AD12389A28861882846B0
:101F5000FFF753FFE1882846FFF742FF17E020888C
:101F600008280AD12389A28861882846FFF7FBFE4A
:101F7000E1882846FFF7EEFE09E02389A288618800
:101F80002846FFF7A6FEE1882846FFF795FE70BDBC
:101F90002DE9F04105460C4600260127608808B966
:101FA000022600E00026A088012801D1022700E0D7
:101FB00001272088A0B92389A28861882846FFF7D5
:101FC00066FFE1882846FFF759FF23893A463146E4
:101FD0002846FFF712FFE1882846FFF701FF13E0CC
:101FE0002389A28861882846FFF707FFE1882846F1
:101FF000FFF7F6FE23893A4631462846FFF747FFAA
:10200000E1882846FFF73AFFBDE8F0810A884B884F
:102010001A438B881A43CB881A430B891A434B897E
:102020001A438B891A43A0F8442070474FF6FF717A
:10203000818000210180C1804180017270470021B0
:10204000018041808180C180018141818181C18184
:102050007047002101804180012181800021C180E1
:10206000018170470021018041808180C180018110
:102070004181818170470000002C01400034014003
:102080000004004000080040000C004021B102881C
:1020900042F00102028004E002884FF6FE731A400B
:1020A0000280704731B1B0F8442042F40042A0F8F9
:1020B000442005E0B0F84420C2F30E02A0F844200A
:1020C00070471AB183890B43838102E083898B4374
:1020D000838170478182704741EA0203A0F848304B
:1020E00070471AB183890B43838102E083898B4354
:1020F0008381704701894FF6F87211400181704762
:102100000A46002101894FF68F731940114301815E
:10211000704730B504460D4629462046FFF7F0FFCC
:10212000208940F00700208130BD2DE9F0410446B0
:102130000D4616461F46602D06D13B46012231460C
:102140002046FFF75AFE05E03B4601223146204675
:10215000FFF79DFE29462046FFF7D2FF208940F079
:1021600007002081BDE8F08130B50C4600210189CF
:10217000C9B24FF6FF7505EA0325154325432943E8
:10218000018130BD2DE9F04105460E4617469846BF
:10219000002443463A4631462846FFF7E5FF2C899E
:1021A0004FF6F870044044F007044FF68F70044077
:1021B00044F070042C81BDE8F081F0B504460D4672
:1021C00016461F463B46324629462046FFF7CCFFBF
:1021D000208940F480402081F0BD018582827047D3
:1021E0000A46002101884FF68F7319401143018080
:1021F0007047F0B50C4615461E460021002200230C
:102200000189028B038C4FF6F877394021434FF652
:10221000FC473A4040F201173A434FF6DD773B4026
:102220004FF6FF7707EA06172F433B4301810283EE
:102230000384F0BD0A460021018B4FF68F731940CD
:102240001143018370470A460021018B48F6FF7352
:1022500019404FF6FF7303EA0223194301837047C5
:102260000A460021818B4FF68F73194011438183F9
:1022700070470A460021818B48F6FF7319404FF6DC
:10228000FF7303EA022319438183704721B1028857
:1022900042F08002028004E002884FF67F731A4009
:1022A0000280704721B1828842F00402828004E0FB
:1022B00082884FF6FB731A408280704721B1828872
:1022C00042F00802828004E082884FF6F7731A40D9
:1022D0008280704721B1828842F00102828004E04E
:1022E00082884FF6FE731A40828070470A460021AA
:1022F000018B4FF6F77319401143018370470A466B
:102300000021018B4FF2FF7319404FF6FF7303EA70
:1023100002231943018370470A460021818B4FF63F
:10232000F77319401143818370470A460021818B5E
:102330004FF2FF7319404FF6FF7303EA022319436C
:10234000818370470A460021018B4FF6FB731940C9
:102350001143018370470A460021018B4FF6FF337A
:1023600019404FF6FF7303EA0223194301837047B4
:102370000A460021818B4FF6FB731940114381837C
:1023800070470A460021818B4FF6FF3319404FF604
:10239000FF7303EA02231943818370470A46002131
:1023A000018B4FF67F7319401143018370470A4632
:1023B0000021018BC1F30E014FF6FF7303EA0223E4
:1023C0001943018370470A460021818B4FF67F73C2
:1023D00019401143818370470A460021818BC1F364
:1023E0000E014FF6FF7303EA0223194381837047FE
:1023F0000A460021018C4FF6FD73194011430184F8
:1024000070470A460021018C4FF6F77319401143BB
:10241000018470470A460021018C4FF6DF73194092
:102420004FF6FF7303EA02131943018470470A460B
:102430000021018C4FF67F7319404FF6FF7303EABA
:1024400002131943018470470A460021018C4FF69C
:10245000FF5319404FF6FF7303EA02231943018427
:1024600070470A460021018C4FF2FF7319404FF666
:10247000FF7303EA02231943018470470A460021CF
:10248000018C4DF6FF7319404FF6FF7303EA0233D8
:1024900019430184704730B5002301248C40A3B256
:1024A000048C9C430484048C02FA01F5ADB22C43E5
:1024B000048430BD30B5002304248C40A3B2048CC6
:1024C0009C430484048C02FA01F5ADB22C430484CD
:1024D00030BD70B503460020002418461830012591
:1024E0008D40ACB21D8CA5431D8409B1082909D1CA
:1024F00000EB6100056825F070050560056815436F
:1025000005600EE00D1FC5F34E052844056825F44F
:10251000E045056005684FF6FF7606EA022635437A
:10252000056070BD21B1028842F00202028004E021
:1025300002884FF6FD731A400280704721B102886D
:1025400042F00402028004E002884FF6FB731A4056
:102550000280704721B1828842F08002828004E0CC
:1025600082884FF67F731A408280704702884FF648
:10257000F7731A40028002880A43028070478288FB
:102580004FF68F731A40828082880A438280704798
:1025900002894FF6F8731A40028102890A430281C8
:1025A000704702894FF67F731A40028102890A43FD
:1025B00002817047818470478185704781867047AA
:1025C0000187704781877047A0F8401070470288E4
:1025D0004FF6FF431A40028002880A430280704788
:1025E0000146888E70470146088F70470146888FE4
:1025F00070470146B1F8400070470146888C70472B
:102600000146088D704702460020138A0B4201D014
:10261000012000E000207047CA430282704730B5B5
:102620000246002000230024158A05EA010395894B
:1026300005EA010413B10CB1012000E0002030BD17
:10264000CA4302827047000010B50446FB4884422A
:1026500009D101218803FFF79BF800214FF4804046
:10266000FFF796F832E0F648844209D10121480488
:10267000FFF79BF800214FF40030FFF796F825E0B4
:10268000F048844209D101218804FFF78EF8002127
:102690004FF48020FFF789F818E0EB48844209D115
:1026A0000121C804FFF781F800214FF40020FFF753
:1026B0007CF80BE0E548844208D101210805FFF7CA
:1026C00074F800214FF48010FFF76FF810BD2DE96A
:1026D000F04786B005460E460024A24600BFA1463C
:1026E0000027B08900B100BF2F462C8A4CF6FF703E
:1026F0000440F08804432C82AC894EF6F310044069
:10270000B08831890843718908430443AC81AC8A9D
:102710004FF6FF400440B0890443AC8201A8FEF7A5
:10272000B0FFC648874202D1DDF810A001E0DDF815
:102730000CA0A88910F4004F08D00AEBCA0000EBE7
:102740000A1031684900B0FBF1F807E00AEBCA0053
:1027500000EB0A1031688900B0FBF1F86420B8FB87
:10276000F0F004012009642101FB1089A88910F40C
:10277000004F08D0322000EBC900B0FBF1F000F0B0
:102780000700044308E0322000EB09106421B0FB8D
:10279000F1F000F00F0004432C8106B0BDE8F08793
:1027A0004FF41651016000218180C18001810C210C
:1027B000418100218181704710B502460020108AB6
:1027C0004FF2FF0318400B884C8823438C88234327
:1027D000CC8823431843108210BD00210180418022
:1027E0008180C180704721B1828942F40052828188
:1027F00004E082894DF6FF731A4082817047F0B57C
:1028000003460024002600250020A1F510676A3F3A
:1028100000D100BF1846C1F3421401F01F06012782
:1028200007FA06F5012C01D10C3004E0022C01D18D
:10283000103000E014301AB107682F43076002E03F
:102840000768AF430760F0BD1AB1838A0B438382E8
:1028500002E0838A8B4383827047028A4FF6F073CB
:102860001A400282028A0A430282704782894FF22A
:10287000FF731A40828182890A438281704721B1A5
:10288000828942F00202828104E082894FF6FD7360
:102890001A4082817047028A4FF6DF731A40028223
:1028A000028A0A430282704721B1028A42F48042BE
:1028B000028204E0028A4BF6FF731A4002827047DC
:1028C000C1F308028280704701468888C0F308007F
:1028D0007047818941F0010181817047028BD2B23A
:1028E0000283028B42EA012202837047028B02F4C8
:1028F0007F420283028B0A430283704721B1828A9E
:1029000042F02002828204E0828A4FF6DF731A408E
:102910008282704721B1828A42F01002828204E0F2
:10292000828A4FF6EF731A408282704721B1828A01
:1029300042F00802828204E0828A4FF6F7731A405E
:102940008282704721B1828942F40042828103E091
:102950008289C2F30E028281704721B1828A42F4D9
:102960000062828204E0828A4FF2FF731A40828200
:102970007047828A4FF6FB731A408282828A0A432A
:102980008282704721B1828A42F00202828204E090
:10299000828A4FF6FD731A408282704702460020F9
:1029A000B1F5007F00D100BF13880B4201D0012098
:1029B00000E00020704701F40072B2F5007F00D102
:1029C00000BFCA430280704770B50246002400234E
:1029D00000250020A1F510666A3E00D100BFC1F3BA
:1029E000421501F01F03012606FA03F3012D02D15F
:1029F0009689334006E0022D02D1168A334001E069
:102A0000968A33400C12012606FA04F416883440E4
:102A100013B10CB1012000E0002070BD10B5002200
:102A20000023A1F510646A3C00D100BF0A12012402
:102A30009440A3B2DC43048010BD00000038014084
:102A40000044004000480040004C0040005000405E
:102A500010B50446F948844208D101214015FEF71B
:102A600097FE00216015FEF793FE17E0F4488442BC
:102A700008D101210015FEF78BFE00212015FEF77D
:102A800087FE0BE0EF48844208D10121C803FEF71E
:102A90007FFE00214FF40040FEF77AFE10BD30B5F6
:102AA0000246002000235068E74C20400D790C6856
:102AB00044EA0524204350609068E44C2040D1E96A
:102AC00002542C434D7944EA450420439060D06A77
:102AD00020F470000C7C641EE4B2234340EA0350EF
:102AE000D06230BD00210160017141718160C1601F
:102AF00001210174704721B1826842F001028260B5
:102B000003E0826822F001028260704721B182688E
:102B100042F48072826003E0826822F480728260F4
:102B2000704710B50023CBB21AB144681C4344600F
:102B300002E044689C43446010BD816841F0080194
:102B400081607047014600208A6812F0080F01D0AA
:102B5000012000E000207047816841F0040181609D
:102B60007047014600208A6812F0040F01D001204E
:102B700000E00020704721B1826842F4A002826028
:102B800003E0826822F4A0028260704701460020C0
:102B90008A6812F4800F01D0012000E00020704705
:102BA00010B50A4600210023416821F46041531EFC
:102BB00041EA4331416010BD21B1426842F40062F4
:102BC000426003E0426822F4006242607047F0B560
:102BD00004460D4600200021092D11DDE068A5F115
:102BE0000A0606EB4607072606FA07F18843A5F111
:102BF0000A0606EB460603FA06F10843E0600CE01D
:102C0000206905EB4507072606FA07F1884305EB1F
:102C1000450603FA06F108432061072A0FDA606BC4
:102C2000561E06EB86071F2606FA07F18843561E36
:102C300006EB860605FA06F10843606322E00D2ADA
:102C40000FDA206BD61F06EB86071F2606FA07F160
:102C50008843D61F06EB860605FA06F10843206373
:102C600010E0E06AA2F10D0606EB86071F2606FAC1
:102C700007F18843A2F10D0606EB860605FA06F178
:102C80000843E062F0BD21B1826842F480128260A4
:102C900003E0826822F48012826070470146C86CAB
:102CA00080B2704765484C300068704721B1426877
:102CB00042F48062426003E0426822F48062426033
:102CC000704721B1426842F48052426003E042689A
:102CD00022F48052426070470A460021816821F444
:102CE000E04111438160704721B1826842F40042A3
:102CF000826003E0826822F400428260704721B162
:102D0000826842F40212826003E0826822F40212B6
:102D100082607047014600208A6812F4001F01D0CB
:102D2000012000E000207047F0B504461546002061
:102D300000220026092911DDE068A1F10A0707EB4E
:102D4000470C072707FA0CF29043A1F10A0707EB9B
:102D5000470703FA07F21043E0600CE0206901EB3B
:102D6000410C072707FA0CF2904301EB410703FAE5
:102D700007F210432061A06BC0F30156EF1C06F16F
:102D8000010CA7EB0C0707EB870C1F2707FA0CF2C7
:102D90009043EF1C06F1010CA7EB0C0707EB87072C
:102DA00001FA07F21043A063F0BD10B50A460021F6
:102DB0000023816B21F44011531E41EA03518163CA
:102DC00010BD10B5002303460B441A6010BD024627
:102DD0000023134601F128000344186880B27047AD
:102DE0000A46002141681A4B19401143416070475F
:102DF0004162826270470A460021416821F01F014A
:102E000011434160704740B10C490831096841F4F1
:102E100000010A4A0832116007E0084908310968D0
:102E200021F40001054A0832116070470246002073
:102E300013680B420ED001200DE000000024014079
:102E400000280140003C0140FFFEF0FFFDF7F1FFCC
:102E5000FFFD3FFF00207047CA430260704770B516
:102E600002460020002300240B125568CEB205EA6A
:102E7000060415681D4202D00CB1012000E00020BC
:102E800070BD00220A12D343036070470021002066
:102E9000674A126842F48032654B1A6000BF644A88
:102EA000126802F40030491C10B9B1F5A06FF6D1D8
:102EB0005F4A126812F4003F01D0012000E00020B8
:102EC000012842D15B4A126842F01002594B1A6045
:102ED0001A46126822F003021A601A46126842F07B
:102EE00002021A60524A5268514B5A601A4652689E
:102EF0005A601A46526842F480625A601A46526812
:102F000022F47C125A601A46526842F4E8125A605F
:102F10001A46126842F080721A6000BF444A126872
:102F200012F0007FFAD0424A526822F00302404B6E
:102F30005A601A46526842F002025A6000BF3C4A88
:102F4000526802F00C02082AF9D1704710B5FFF759
:102F50009DFF10BD10B53648006840F001003449AF
:102F600008600846406834490840314948600846CE
:102F70000068324908402E4908600846006820F47D
:102F8000802008600846406820F4FE0048604FF446
:102F90001F008860FFF7DAFF4FF0006028490860E3
:102FA00010BD10B5002100200022214B5B6803F00A
:102FB0000C0121B1042906D0082928D107E0214BB2
:102FC000214C236027E01F4B1F4C236023E0184B4C
:102FD0005B6803F47010164B5B6803F480320223C5
:102FE00003EB904022B9194B4343174C23600DE08B
:102FF0000F4B5B6813F4003F04D0144B4343124C57
:10300000236003E00F4B43430F4C236003E00D4B61
:103010000D4C236000BF00BF054B5B68C3F3031377
:103020000B4CE15C084B1B68CB40074C236010BD88
:1030300000100240002002400000FFF8FFFFF6FEF3
:1030400008ED00E000127A002800002000093D0091
:103050002C00002000B589B001210820FEF77EFB7E
:1030600001210420FEF787FB4FF47070ADF82000BB
:1030700018208DF8230002208DF8220008A943486B
:10308000FEF7BAF80020ADF81A00ADF8160044F6C5
:103090002060ADF818000720ADF8140000208DF86E
:1030A0001C0005A93A48FEF795FC6020ADF8040025
:1030B00044F62060ADF80A000020ADF80C00ADF831
:1030C0000E004FF48070ADF810000020ADF8120033
:1030D0000120ADF806000420ADF8080001A92C4835
:1030E000FEF7B5FC0020ADF80A0001A92848FEF75C
:1030F000F0FC44F62060ADF80A0001A92448FEF770
:1031000035FD0020ADF80A0001A92148FEF779FD40
:1031100008211F48FFF7EAF808211D48FFF7EFF8DC
:1031200008211B48FFF7F8F808211948FFF7FDF8B8
:1031300001211748FFF7AAF801211548FEF7A6FF5D
:1031400001211348FEF7AEFF09B000BD0EB5012105
:103150000846FEF710FB4CF24F30ADF804000B2090
:10316000ADF800000020ADF80600ADF80200694699
:103170004FF08040FEF72EFC01218807FEF786FF06
:10318000012211469007FEF79CFF0EBD000C014086
:103190000008004008B501210420FEF7DFFA0121F4
:1031A0000820FEF7DBFA01211020FEF7D7FA0420F1
:1031B000ADF8000018208DF8030003208DF8020000
:1031C00069463B48FEF718F80820ADF800000420D7
:1031D0008DF8030003208DF8020069463448FEF79D
:1031E0000BF84FF40070ADF8000018208DF80300C4
:1031F00003208DF8020069462D48FDF7FDFF4FF4CE
:103200008060ADF8000004208DF8030003208DF8E5
:10321000020069462648FDF7EFFF4FF48060ADF8E5
:10322000000018208DF8030003208DF80200694685
:103230002048FDF7E1FF4FF40060ADF800000420E6
:103240008DF8030003208DF8020069461948FDF748
:10325000D3FF4FF20400ADF8000010208DF80300FA
:1032600069461448FDF7C8FF4FF480511148FEF736
:1032700070F84FF480510F48FEF769F84FF4805111
:103280000C48FEF766F84FF400510A48FEF761F863
:103290004FF47870ADF8000004208DF8030003208F
:1032A0008DF8020069460348FDF7A6FF08BD00003F
:1032B00000080140000C014030B480EA010202F035
:1032C000004530F0004221F0004015D0A0B1C0F31D
:1032D000C753C2F3C754C2F31601C0F31600E41A71
:1032E00041F4000140F400027D34914201D3641C9A
:1032F00000E04900002C02DA30BC002070474FF497
:1033000000000023914201D3891A034340084FEA89
:103310004101F7D151B1914202D14FF0004105E096
:1033200002D24FF0010101E06FF0010103EBC45044
:10333000284430BC00F0BAB82DE9FE4F81EA0304FE
:1033400004F0004421F0004100944FF0000B23F002
:10335000004350EA010402D052EA030404D10020E1
:10336000014603B0BDE8F08FC3F30A54C1F30A5518
:103370002C44A4F2F3340194A0FB0254C1F31301D2
:1033800041F48011C3F3130343F4801301FB02449F
:1033900000FB034E840A970A44EA815447EA8357A4
:1033A000A4FB076802958D0A05FB07854FEA932C5D
:1033B00004FB0C542705029D4FEA065847EA1637CE
:1033C000B5EB08056EEB070C870E920E47EA8117E6
:1033D00042EA8312A7FB0201B6EB0B0164EB000487
:1033E0002B0D43EA0C335E1844EB1C50DA46514671
:1033F000E7FB0201C5F313044FEA0B3343EA14530E
:103400004FEA0432019C43EA0603A4F10C0402943F
:10341000009CCDE900B400F08CF8A2E796230022CE
:10342000114600F04CB800F0004230F000400AD0E5
:10343000C10D01F56071C0F3160042EA0151C208E6
:1034400040071143704700200146704730B50029FE
:1034500004DB4FF00044404264EB0101002B04DB2D
:103460004FF00044524264EB03038B4208BF824298
:1034700030BD000001F0004330B421F0004150EABB
:10348000010206D00A0DA2F56072C1F31301002AF1
:1034900002DC30BC00207047440F44EAC104C10084
:1034A000E01830BC00EBC250AFF300800029A8BF89
:1034B0007047401C490008BF20F00100704710B45D
:1034C000B0FA80FC00FA0CF050EA010404BF10BC12
:1034D000704749B1CCF1200421FA04F411FA0CF13F
:1034E00018BF012121430843A3EB0C01CB1D0106AA
:1034F000000A002BBEBF002010BC704700EBC35079
:1035000010440029A4BF10BC7047401C490008BFEC
:1035100020F0010010BC704710B5002B08DA401CE9
:1035200041F1000192185B411A4301D120F00100E2
:1035300010BD2DE9F04D92469B4611B1B1FA81F2D2
:1035400002E0B0FA80F22032904600F057F80446CC
:103550000F4640EA0A0041EA0B0153465A46084327
:1035600003D120463946BDE8F08D114653EA0100EB
:1035700015D0C8F14002504600F04FF805460E46FF
:1035800050465946424600F039F8084301D0012020
:1035900000E00020054346EAE0762C4337430A98D2
:1035A0004FEA4453A0EB08004FEAD4240A304FF00E
:1035B000000244EA47544FEAD72502D500200146CD
:1035C000D1E7010510196941DDE908450019694194
:1035D000BDE8F04DA0E70000064C074D06E0E068AE
:1035E00040F0010394E8070098471034AC42F6D34A
:1035F000FCF780FD4841000868410008202A04DBF0
:10360000203A00FA02F1002070479140C2F12003F5
:1036100020FA03F3194390407047202A04DB203A34
:1036200021FA02F00021704721FA02F3D040C2F1E2
:103630002002914008431946704700000000000036
:1036400002E008C8121F08C1002AFAD1704770476B
:10365000002001E001C1121F002AFBD1704710B504
:10366000002A06DA22F00042D21D22F007031022BF
:1036700003E0D21C22F003030C2213B19C188C42ED
:1036800001D9012010BD024401448360C0E900213A
:10369000C91AD018884202D810600246F9E7002003
:1036A000106010BD08480068C0010BD507480068CD
:1036B000C00707D0054880380068002802DA0449AE
:1036C0000120087070470000FCED00E0800E00E073
:1036D000500000204FF06042D36F002BFCD0C36A33
:1036E000D367D36F002BFCD0C07840EA0120A2F84A
:1036F0007C0070474FF06041CA6F002AFCD081F80F
:103700007C0070470A460146074810B500EB82006E
:1037100050F8040C002805D000F036FABDE810403F
:1037200000F022BA10BD00007C6800200748016844
:103730004FF0E020416100218161072101610448CF
:10374000016841F07F410160401770472C4100083B
:1037500020ED00E0704750E8001F31B10B6840E8F1
:103760000032002AF7D108467047BFF32F8FFAE7DF
:1037700070B50D46002812D04FF6FF71084C8842F4
:1037800004D222680146104600F02AFA20684570EB
:10379000044800F0E3F8BDE8704000F0C3BA70BD23
:1037A0003C000020EC6800200F4810B50D4942682D
:1037B0000E480B680068934204D00A60CB88421E12
:1037C0001A448A808A8880B282420AD10020086026
:1037D000054800F0C3F80146BDE81040024800F07B
:1037E00023BA10BD5C000020EC6800204C000020D3
:1037F00070B51A4DE86800282ED0A88A401EA8820D
:10380000002623E0A06838B161684160606810B1AB
:10381000A16881606660A66010482146183800F0F3
:1038200003FAA08AA8826078042804D10C49E08AAF
:1038300009880844A0820120607084F82000E068B4
:10384000E860E06808B10561E6602661A88A0028A2
:1038500002D1EC68002CD5D170BD000004690020B5
:103860004C00002070B504000FD00D4DA17801264A
:103870002868827891420CD900F0F2F928684670E5
:103880002046BDE8704000F04DBA064800F066F8EA
:10389000F7E766702146BDE87040024800F0C4B901
:1038A0003C000020EC6800200321FFF761BF00000E
:1038B00010B50446008B084320836278618B062A8A
:1038C00016D0052A17D1084215D001EA00026283FA
:1038D00088432083204600F0CDF90120607002204B
:1038E00084F820002146BDE81040034800F09CB950
:1038F00031EA0002ECD010BDEC68002070B5034640
:103900000D480D460468208B42B133EA000101D016
:10391000062009E098432083022070BD10EA0302CC
:1039200001D06283F6E70520C1B263832846FFF722
:103930001FFF012070BD00003C000020814202D327
:1039400042688A4201D80120704750E8002F0A607F
:1039500040E80012002AF8D1002070470146406874
:1039600042684A600B780022022B05D0012B03D05D
:10397000032B01D04260704743680BB199604260ED
:103980008260704770B50446002015462070012201
:103990006270A1706060A060E0602061A082E0823F
:1039A0002083608384F8200084F82100608C18B99B
:1039B0000448FFF7D0FEA06229462046BDE87040CB
:1039C00000F00EB8A05A002003480021016003490E
:1039D0000988C180704700005C0000202841000871
:1039E00010B5428C920803D10F4A1288C2F38D029F
:1039F000836A03EB8202530700D5121F403A4FF04F
:103A00008073C2E90E1300234FEA030442F82340F7
:103A10005B1C0E2BFAD3C36913624262C162806AD7
:103A20000249016010BD000024410008A52E5AE2A1
:103A30002DE9F0410F4604464168002004F10C06D0
:103A400021B1617802291AD0A189A9B3A189E2899B
:103A5000914246D2218904EB81010F61D6E85F1FB4
:103A6000491CC6E8521F002AF8D12189491C89B295
:103A70002181E289914200D12081BDE8F081074691
:103A800060702046FFF76AFF80F8207021890546A4
:103A900004EB8101C0690861D6E85F0F401CC6E8ED
:103AA000510F0029F8D12089401C80B22081E18982
:103AB00088420BD1278109E0FFE72046FFF74EFF40
:103AC0000546C0690421076085F820100120687050
:103AD000284600F0CFF82946BDE8F041034800F041
:103AE000A3B8BDE8F0410320FDF77BB9EC680020E6
:103AF00070B51A4801210068417000F0B1F8184D06
:103B00006C7816E005EBC40148680278E2B1012A3E
:103B10001FD000F0DBF8E878641C844200D1002458
:103B20000F48801CD0E84F1F491EC0E8421F002AE2
:103B3000F8D1A8780028E5D16C700A48FFF70EFF8D
:103B4000BDE8704000F0EEB8098989B2FFF7B0FE19
:103B5000E1E78968FFF76CFFDDE700003C0000202B
:103B6000F8670020EC6800200548017811B10121B8
:103B70004170704703494FF0805008607047000063
:103B80004400002004ED00E0F0B4144A941CD57801
:103B90004FEA0206D4E84F3FAB4202D1BFF32F8F6A
:103BA0000EE05B1CC4E8473F002FF3D1D6E84F3F3F
:103BB0005C1CAC4200D10024C6E8474F002FF5D171
:103BC000D4789C4205D902EBC302C2E90101F0BCE2
:103BD0007047F0BC0220FDF704B90000F867002030
:103BE000104A10B5D368ABB113469B8A03E08CB181
:103BF0002246A48A2344D4688B42F8D3C460D060A0
:103C00000261C46804B12061591A8182908A401A05
:103C1000908210BD0024C460D060C91A02619182F4
:103C2000848210BD0469002030B502780023022A86
:103C300003D0012A01D0032A00D101238C7800E0AF
:103C40001046426812B19578A542F9D24A604160A7
:103C50001BB102B19160886030BD0020FBE700001D
:103C600003494A6842600022826048607047000051
:103C7000EC68002010B5016900290ED0C268CA6046
:103C8000C36800223BB18B8A848A23448B82C36839
:103C90001961C26000E08A82026110BD816839B199
:103CA00042684A604168002901D080688860704796
:103CB000054906E04A68824202D140684860704780
:103CC00011460029F6D17047EC68002010B5416814
:103CD00079B1FFF743FE0446FFF7CCFF0120607087
:103CE000032084F820002146BDE810400348FFF778
:103CF0009BBF4188491C418010BD0000EC6800203A
:103D000006480068D0E90910814203D300680449DD
:103D1000884202D00120FDF764B870473C000020C3
:103D2000A52E5AE20749022248604270064A1278DC
:103D3000002A05D006C98A4202D0C078FFF7DABC53
:103D4000704700003C000020500000202DE9F047A3
:103D5000164688468146FFF7A5FC002004463E4AE9
:103D60003E4902E042F82040401C0B889842F9D3BB
:103D70003B48302201883B48FFF771FC3A480088F5
:103D800080B240F00042394801683948FFF767FCCB
:103D900038480822018838480068FFF760FC374F30
:103DA000FF25374AFD707C8400213846FFF7EAFD85
:103DB000344804210170446033480170C4600461D8
:103DC0008482786A2030FCF79BF9304831490760DB
:103DD000022078702E48047044700978C170FFF793
:103DE000F3FD2D48016841F47F0101600068290658
:103DF00001EA00202849C0431439B0FA80F009686C
:103E0000C0F10800C1F30221814200DB481C2249B5
:103E1000091F0B686FF08072824063F317020A601B
:103E2000FFF784FC1D49002808600CDB1C49455441
:103E300000F01F020121914040114FF0E02202EBFF
:103E40008000C0F80011324641464846BDE8F047C0
:103E5000002300F065B800007C68002020410008C5
:103E60003C410008905700202441000840410008D0
:103E7000A05A00204641000810000020BC68002025
:103E8000DD0D0008EC680020046900203C000020E3
:103E9000F86700204441000820ED00E048000020C1
:103EA00000E400E00B4810B5006801214170FFF705
:103EB000D7FEFFF779FC08480168491C0160FFF74D
:103EC00097FC00F00DF80548FFF748FDBDE81040ED
:103ED000FFF728BF3C0000204C000020EC680020C9
:103EE00070B50D4C2068002815D0A0880B4E401EE0
:103EF000A0800AE0E888FCF773FFA888A080286803
:103F0000206029463068FFF719FDA088002802D1FB
:103F10002568002DEED170BD540000201000002057
:103F20002DE9F0411E46174680460C4611F0FF0F62
:103F300000D14C1C1A48FFF70EFC05002DD0C4F32D
:103F40000F20AF626884E1B242462846EE61FFF777
:103F500019FD01241348144906E000BF00EB840258
:103F600052F8042C22B1641C0A889442F6D9002429
:103F700000EB8400E6B240F8045C0C48EE70007878
:103F800018B101212846FFF7A5FB2846FFF76AFC78
:103F90000748006880F820602046BDE8F0810000F6
:103FA000905700207C68002020410008500000202D
:103FB0003C0000202DE9F041284C274F284E216875
:103FC000002510B1CA78824220D14D70FCF79BF8D1
:103FD00021684862FFF794FE2068C17806EB8101F2
:103FE00041F8045C816A1F48FFF7A8FC20688562DD
:103FF000397811B10021FFF76DFB1B482168FFF7ED
:104000009DFC00202560FFF72DFC1FE01749098863
:1040100088421ED806EB800656F8044CCCB12046E8
:10402000FFF73CFE2046FFF725FE46F8045C0D48EE
:10403000A16AFFF783FCA562387818B100212046F9
:10404000FFF748FB21460848FFF778FC0020BDE851
:10405000F081FF20FBE70000500000203C00002022
:104060007C680020A05A00209057002020410008C2
:1040700030B5114A0121114853684FF0E024002B5C
:1040800008DA052323611170016803EA91619170D8
:1040900049060EE003F01F0501FA05F55B1104EB7C
:1040A0008303C3F8805111700168C1F300719170EE
:1040B000C906016030BD00004400002004ED00E0AE
:1040C00002480068002800D0C07870473C000020FB
:1040D000F0B51148002102464368104C92784FF029
:1040E000E025002B07DA07232B610170437842EAB1
:1040F000830292060CE003F01F070126BE405B110D
:1041000005EB8303C3F80061017043781A4312077B
:1041100022604170F0BD00004400002004ED00E08A
:1041200010000000C8000001050001009F8C000085
:1041300001000000F4010000000000000C0300007A
:10414000580D000010000000684100080000002029
:104150006400000040360008CC41000864000020E4
:10416000BC6C000050360008000000000000000099
:10417000000000000000000000000000000000003F
:1041800001020304010203040607080902040608E9
:1041900000A24A0400000000000000000102030425
:1041A00006070809000000000000000000000000F1
:1041B00000000000000000000000000000000000FF
:0C41C000000000000000000000000000F3
:04000005080000ED02
:00000001FF
